:101C6D00686900202530326264202530326264209C
:101C7D002530326264002020003230256264253028
:0A1C8D003262642D253032626400DB
:100EAF0043012901020741012C02410124014101A3
:100EBF002801014E01410134004101200041012769
:100ECF0001153900010000000000010100000000C1
:0C0EDF00000201000000000041011E00A4
:1013B9009000E0E0FBA3E0FAA3E0F922E92402F9B6
:1013C900E43AFA1203CBEF2401FFE43EFEE43DFDCB
:1013D900E43CFC22F07F0C7B007A00794F7E007D93
:1013E900000204D7A3F0743B900126F0E490012594
:1013F900F090011EE022900126F07401900125F081
:1014090090011EE0229000021203EBE47BE87A03CC
:10141900F9F8D302038090012104F0A322E0F8A394
:10142900E0F9A3E0FAA3E0FBD302038090000102F4
:10143900012D7B007A00793222F0A37400F0A374A5
:091449004FF02290000102018E17
:1005C70043BA80121D88121E63121ED0121DA24349
:1005D7008E4053890F758B9A758DA9C28FD28ED293
:1005E700AB7BFF7A1C796D9000F67401F0E4FD1285
:1005F7000D4B9000EB12047600FFFFFF7F091217E7
:10060700117FD07E077D007C00121D6DE53F60479E
:10061700E53A7040E54E6410600FE54EB402047F82
:100627000180027F028F4E802B9001211213BC1292
:100637000114600C14FF900125E0FEEFC39E5009E2
:10064700900126E012017C800B9001211213BC74EB
:10065700FF12015AE4F53FE5466057E5417048E56A
:100667004EB4102E9001211213BC1201142401FF65
:10067700E433FE900126E0FDD3EF9D7480F86E9879
:100687004009900125E012017C8024740112015A6F
:10069700801D90012CE02401FFE433FE7C007D03E4
:1006A7001201C2EDF08008E541B4020375C760E4AA
:1006B700F546E54D6066E5487029E54EB4101190A2
:1006C7000127E004F0E0D39403404E7401F0804921
:1006D700900124E070047F0180027F00900124EFE5
:1006E700F08036E54864027030E54EB4100D754E63
:1006F7000190013474011213DD801E90011FE54E35
:10070700F0754E109001277401F0782D7C01FD12D1
:10071700143B7E007F071200EEE4F54D90012CE0BC
:100727002429F582E43401F583E0FF7E00121E3DA3
:10073700E54E64016005E54EB4022D9000E7120412
:1007470076000001F4AF31AE30AD2FAC2E121B6630
:10075700EF70030208F112184F851031850F3085AD
:100767000E2F850D2E0208F19000E7120476000087
:10077700012CAF25AE24AD23AC22121B66EF70030C
:030787000208F174
:10078A0090011EE070047F0180027F0090011EEF3D
:10079A001213DD90011FE06401600302082A900031
:1007AA00F574FFF0A3741CF0A37470F0900131E0AB
:1007BA009000F8F0900132E09000F9F090013312C5
:1007CA0009D1701B12141F7401F0A37431F074174D
:1007DA001213F170030208C678507C000208B79021
:1007EA000127E06402701712141F7401F0743212A8
:1007FA0013ED70030208C678537C000208B7900113
:10080A0027E0640360030208C612141F7401F0741F
:10081A00331213ED70030208C678567C000208B73B
:10082A0090011FE0640260030208C69000F574FF9D
:10083A00F0A3741CF0A37486F090012DE09000F8E8
:10084A00F090012EE09000F9F090012F1209D1707A
:10085A001D12141F7401F0A3742DF0900126746305
:10086A00F07417121405605478517C00803F90018F
:10087A0027E06402701712141F7401F0A3742EF09B
:10088A00740C1213FF603578537C00802090012786
:10089A00E0B403289001217401F0A37401F0A37459
:1008AA002FF0741F1213FF601378567C007D007BB3
:1008BA00FF7A1C79837E007F021200EEE490012405
:1008CA00F0FB7A00794F90011FE0B402047D0080AA
:1008DA00027D01E49000F6F0120D4B851025850F7C
:0708EA0024850E23850D2279
:1008F100900134E0606890011FE0B4021090013172
:10090100E536F0A3E537F0A3E538F0801290012D2C
:10091100E532F0A3E533F0A3E534F0A3E535F0903B
:10092100012EE0FDA3E0FBA3E0149000E6F09001AE
:1009310031E09000E7F0900132E09000E8F09001A2
:1009410033E09000E9F090012DE0FF1218AB7F0732
:100951007B017A01792D1213E6E4900134F09001C4
:1009610024E0602DE54E641060279000E7120476C4
:1009710000000096AF2DAE2CAD2BAC2A121B66EFFA
:10098100600F12121B85102D850F2C850E2B850DE6
:100991002A900128E07003020613E54E64107003EB
:1009A1000206139000E71204760001D4C0AF29AE0D
:1009B10028AD27AC26121B66EF7003020613121432
:1009C100E5851029850F28850E27850D260206133A
:1009D100E09000FAF07B007A00794F120A4B900107
:0509E10027E064012283
:101B66009000E312046AAF10AE0FAD0EAC0D9000FC
:101B7600E3121426501F9000E3E0F8A3A3A3C3E5E5
:101B8600109BFFE50F9AFEE50E99FDE50D98FCA367
:0B1B960012142650037F01227F002262
:10184F0012143B1210071213DEE54EB40120900163
:10185F0020E070047F0180027F00900120EFF09064
:10186F0000E6E412144212143B121A52801BE54E8A
:10187F00B402169001207401F07B009000E6141260
:10188F0014427A007932121BA17B007A00794F90B3
:0C189F000120E0FDE49000F6F0020D4B8B
:101452009000E0EBF0A3EAF0A3E9F01213B9121442
:101462000E500E1213B912143570061213C502046F
:101472001B1213B9120114FF121D50EF704F1213F9
:10148200B912143570081213C512041B80191213F5
:10149200B9121435B401109000021204A700000022
:1014A20000E412144C801E1213B912143570331258
:1014B200140E502E1213B9740212144C1213C512C8
:1014C200041B1213B9900006740102018E1213B9A3
:1014D200900001740112018E9000021204A7000014
:0314E200000022E5
:03001B0002196067
:10196000C0E0C0F0C083C082C0D075D000C000C04D
:1019700001C002C003C004C005C006C0077B007AD6
:101980000079391214527B007A0079401214527B8C
:10199000007A007947121452C28FD007D006D005C2
:1019A000D004D003D002D001D000D0D0D082D083D8
:0519B000D0F0D0E03290
:071EBB002562640000000035
:100EEB00410023011E5B0000000000000000000019
:100EFB0000000000000000000000000000000000E7
:100F0B0000000000602400BC000000000000000096
:100F1B0000000000000000000000000000000000C6
:100F2B00000000000000000000000000609800249A
:100F3B0000C00000003927000020060000D122006D
:100F4B0000E1220000E0030000E1210000F121009C
:100F5B000020220000F1230000E123000004080020
:100F6B0000F0230000A52A000011210000252A0013
:100F7B000051210000D0210000B1210000F003003E
:100F8B00000528000031020000520500001101008D
:100F9B0000301700003213000031230000D0230073
:100FAB000033230000D2230000E1210000042800BD
:100FBB000031030000180500003A0300000A14007A
:100FCB0000C403000009240041000000420001009E
:100FDB000160200003000000000000000000000082
:100FEB0000000000000000000000000000000000F6
:050FFB000000000000F1
:1012FF009000E312046A9000E3E0FCA3E0FDA3E09A
:10130F00FEA3E022FC12046A900102E0F8A3E0F9C8
:10131F00A3E0FAA3E022FF120391E49000F775F027
:10132F000112024D745B25F0F8A607227F1E7B0089
:10133F007A00795B7E007D000204D7FBAA0624BCED
:10134F00F58274003AF58322C39BFFEE9AFEED9966
:10135F00FDEC98227B007A00795B900101E4F0A309
:10136F00741EF0E4FF22900000E025E025E0240346
:10137F00F582E43400F583229000F9E0FEA3E078D3
:10138F000222C39000FDE0FF648022E49000F7F09A
:10139F00A3F0A3F0A3F0227E007D007B010204D70F
:0A13AF0024BCF58274003EF5832291
:101BDC0090FECCE4F090FEC97468F090FECC7410CA
:101BEC00F090FED7E4F0A37464F090FED27403F08E
:101BFC00A374E8F090FEB17404F090FEDD7480F0F4
:081C0C0090FEC0E04481F022CB
:0D000E0090FEC0E054FEF090FEB1E4F02240
:101DA200D291121BDC7F06121D0CE4FF121C417F34
:091DB200077E00121E3D021EA96D
:08000300C29112000E021EA9B9
:091EA90012133B1213630216929E
:051711009000EAEFF07A
:1017160078EF7C007D017BFF7A1E79BF7E007F0318
:101726001200EE7F037B017A0079EF1213439000DB
:10173600EB121308FFEC4D4E4F602D9000EBA3A368
:10174600A3E07810120391A3EFF09000EB121308B8
:10175600FF78081203919000F0EFF09000EB12135F
:1017660008FFE49000F1EFF09000EAE075F003A4C2
:10177600FF7B017A0079EF900101E4F0A37403F096
:03178600021692B6
:100D4B009000F5EDF09000F2EBF0A3EAF0A3E9F0E0
:100D5B00121E2812139AD3EF9409EE940040067ECC
:100D6B00007F0980009000FBEEF0A3EFF012133B25
:100D7B007F247A0079BC1213A69000FBE0FEA3E05F
:100D8B00FF4E7003020E55EF24FFFFEE34FF900071
:100D9B00F9F0A3EFF09000F9E0FEA3E0FFC3EE64DF
:100DAB008094805003020E559000F2E0FBA3E0FA12
:100DBB00A3E0F98F828E8312012DFF607C12112527
:100DCB00C004C005C006C0079000F712138AC333D6
:100DDB00CE33CED8F912134AD007D006D005D004A3
:100DEB0012046A9000F5E0601A74BC2B12134FC00A
:100DFB0083C082121308FFEE4480FEECD082D083B6
:100E0B0012046A9000F6E06022A312138AC333CE59
:100E1B0033CED8F91213AFC083C082121308FFEE82
:100E2B004440FEECD082D08312046A9000F8E004B8
:100E3B00F070069000F7E004F09000FAE024FFF069
:100E4B009000F9E034FFF0020DA012139A121387F1
:100E5B00C333CE33CED8F912134A121308781012BB
:100E6B00132574BC2B12134F121308780812132579
:100E7B00121387C333CE33CED8F91213AF12130824
:100E8B00FF1213299000FAE004F070069000F9E0CD
:100E9B0004F09000F9E07004A3E0640970AF121342
:040EAB006302169236
:101E3D00900023E06F7001EE6008EFF0FD7F01125E
:031E4D001C142240
:061576009000FE12046A61
:10157C0090010A12131AFBA3121308121357A31289
:10158C001313FBA312130812135790011612131303
:10159C00FB9000FE121308121357FC90011A120450
:1015AC006AE47B02FAF9F8900116121308FF121A7A
:1015BC00DFC004C005C006C007900112121308FF5B
:1015CC0090011A12131AFB120263D003D002D0013D
:1015DC00D000EF2BFFEE3AFEED39FDEC38FC90011C
:1015EC001612131AFB121ADF90010A12131A2FFF8C
:0915FC00EA3EFEE93DFDE83CFC7D
:0116050022C2
:101125009000FDEFF0BF20030211FE9000FDE0FBF3
:10113500B42D069000240211E3C3EB648094B04003
:101145004CD312139294BA5044EF3395E0FEFDFC54
:10115500C004C005C006C007900102120476000055
:1011650000309001061204760000003A90010A1240
:1011750004760000000190010E1204760000000BB9
:10118500D007D006D005D004121204805112139155
:1011950094C1404FD3EF648094DA5047E03395E033
:1011A500FEFDFCC004C005C006C007900102120484
:1011B50076000000419001061204760000005A9066
:1011C500010A1204760000000C90010E120476004C
:1011D500000025D007D006D005D004121204121342
:1011E50008FF2212139194E1400FD3EF648094FA23
:1011F5005007E024E0FF021125E4FFFEFDFC22126A
:10120500157690002475F004EF1204CBEE25E02549
:06121500E02583F58322B1
:101C9700E4FEFDA805EF088002C313D8FC5401FC3D
:101CA700C374079DFBF8EC088002C333D8FC4EFED3
:071CB7000DEDB408DEAF06DD
:011CBE002203
:10121B0090001F121308FFEC4D4E4F60030212CAD1
:10122B00900000F0900000E0FFC39408400302120E
:01123B00C5ED
:10123C00EFC394084002E4F0E4FFFE7D80FC9000D4
:10124C0000E0F9F81203A41212FFFF7810120391B8
:10125C00121C97A3EFF0121305FF780812039112DA
:10126C001C979000E8EFF0121305FF121C979000EA
:10127C00E9EFF09000E7E0FFE4FCFDFE78101203CC
:10128C00B8A804A905AA06AB07A3E0FE3395E0FDB8
:10129C00FCEA4EFAE94DF9E84CF8A3E0FFEB4FFFFE
:1012AC00EAFEE9FDE8FC1212FFFF12137512046A44
:1012BC00900000E004F002122FE4900000F01213F2
:1012CC0075121308FF9000EB12046A7F09121711B4
:1012DC00900001A3E0FF900000E02FF0E0FFB407C6
:1012EC000774FFA3F0A3F022EF7007900001F0A3A6
:0212FC0004F0FC
:0112FE0022CD
:1014E5009000E37401F07F0C7A0079E51213A6E40D
:0414F5009000E4F08F
:1014F900121EB29000E3E0F9F81203B8E47B0AFA8D
:10150900F9F81202EEAF039000F1EFF09000E4E079
:101519007C007B0124E5F9EC3400FA9000F574FFB6
:10152900F0A3741EF0A374BBF0A3EFF0120A4B7F73
:041539000112156C1A
:10153D009000E4E004F0E0C3940A40B07B017A002F
:10154D0079E5E49000F6F0FD120D4B7F0A12156C53
:0F155D009000E3E004F0E0D3940A4082021EA95C
:0A156C007E007D007C00121D6D2240
:0B1E9400C2947F0A7E007D007C0022CB
:05190600900105EFF067
:10190B00E4A3F0A3F0C290900106F0A3F0121E9690
:10191B00121DFD900105E030E004D2B78002C2B782
:10192B00121E96121DFDD290121E96121DFDC29014
:10193B00900105E0C313F0900107E004F0700690EE
:10194B000106E004F0C3900107E09408900106E063
:04195B00940040B9FB
:01195F002265
:101C41009000E37440F0EF6004E04404F0D2941299
:101C51001E96121DFD121E94121DFD9000E3E0FF61
:0B1C6100121906121E96121DFDD294EF
:011C6C002255
:101D0C009000E3EFF0D294121E96121DFD121E9459
:101D1C00121DFD9000E3E0FF121906121E96121D13
:041D2C00FDD294222E
:101C1400ED44809000E3F0EF6004E04408F0D294D7
:101C2400121E96121DFD121E94121DFD9000E3E07B
:0C1C3400FF121906121E96121DFDD2941C
:011C40002281
:0E1692009000FDEFF0A3EBF0A3EAF0A3E9F067
:1016A000E4900103F0A3F0D2947F0AFEFDFC121D2A
:1016B000FD121E94121DFD9000FDE044C0FF1219A2
:1016C00006121E96121DFDE4900103F0A3F0900196
:1016D00001E0FEA3E0FFA3E0FCA3E0FDC39FEC9EBE
:1016E00050269000FEE0FBA3E0FAA3E0F98D828C87
:1016F0008312012DFF121906900104E004F070CE50
:10170000900103E004F080C6121E96121DFDD294D3
:0117100022B6
:101CE60057256264202530326264253032626425CD
:101CF60030326264003230256264202530326264FC
:061D06002530326264008A
:101B2300E0FF121E859000E3E0FBA3E0FAA3E0F9D7
:101B330022D2957F047E007D007C0022EFF0A3EB90
:101B4300F0A3EAF0A3E9F022121E50A3EFF02274EF
:101B53000790000302018E90000102012D90000303
:031B630002012D4F
:071EC20043914043924022CE
:071EC9004391405392BF2238
:0F1E760043912043922043918053927F021EC2DA
:101DBB00121EC2D296121B34121DFDC296121B3676
:061DCB00121DFDC295226D
:101E1300121EC2C295C296121B34121DFDD2961217
:051E23001B36021DFD4D
:101DD100121EC2D296C295121B36121DFD121B3461
:061DE100121DFDC2952257
:101DE700121EC2C296C295121B36121DFD121B345B
:061DF700121DFDC2952241
:1017EE00E49000F9F0A37403F0D2967F01121B3837
:1017FE00121DFD121EC97F01121B38121DFDD2953E
:10180E007F01121B38121DFD3096199000FAE0D39D
:10181E00940040107F01121B38121DFD9000FAE05B
:10182E0014F080E49000FAE060069000F97401F084
:10183E009000F9E07003121E13C2959000F9E0FFBC
:01184E002277
:051A9A009000F7EFF0E1
:101A9F00121EC2C295121B36121DFDE49000F8F003
:101AAF009000F7E030E704D2968002C296121B3600
:101ABF00121DFD121B34121DFDC2959000F7E0FFA1
:101ACF0025E0F0A3E004F0E0C3940840D30217EE42
:0519B5009000F3EFF0CB
:1019BA00E4A3F0121EC9A3F0C295121B36121DFD34
:1019CA00D2959000F4E025E0F0309604E04401F06E
:1019DA007F01121B38121DFD9000F5E004F0E0C3F0
:1019EA00940840D4C2959000F3E06005121DE78088
:0919FA0003121DD19000F4E0FF7E
:011A030022C0
:061789009000ED121B3F71
:10178F00121DBB7F64121A9AEF60539000EDE0FFB9
:10179F00121A9AEF6048121DBB7F65121A9AEF60FA
:1017AF003DE49000F2F09000F1E0FFA3E0FEC39F54
:1017BF005029EF14B506047F0080027F011219B57E
:1017CF009000EE121B2B9000F2E0F582758300EF74
:0E17DF0012018E9000F2E004F080CB121E1377
:0117ED0022D9
:061A04009000F1121B3FEF
:101A0A00121DBB7F64121A9AEF603C9000F1E0FF4E
:101A1A00121A9AEF6031E49000F6F09000F5E0FFB8
:101A2A00A3E0FEC39F501D9000F2121B2B8E8275FD
:101A3A00830012012DFF121A9AEF600B9000F6E054
:071A4A0004F080D7121E1307
:011A51002272
:031ED000021E7679
:101E5000EF75F00A84C454F0FEEF75F00A84E5F0E3
:031E60004EFF2210
:0F1E8500EFC4540F75F00AA4FEEF540F2EFF2286
:0218AB00AC0788
:1018AD00121E769000E9E0FF121B4B9000E8E0FF5E
:1018BD00121E509000EBEFF09000E7E0FF121E506B
:1018CD009000ECEFF09000E6E0FFF8E4088002C332
:1018DD0013D8FC44019000EDF0AF03121B4BAF0584
:1018ED00121B4BAF04121B4B7B017A0079EA90005F
:0918FD00F57407F0E4FF021A047F
:061007009000E3121B4201
:10100D00121E767B017A0079E69000F17407F0E408
:10101D00FF1217899000E6121B23900006EF1201B4
:10102D008E9000E7121B23900005EF12018E9000A9
:10103D00E8121B23900004EF12018E9000EA121BA0
:10104D0023900002EF12018E9000EB121B239000F3
:10105D0001EF12018E9000EC121B23EF12017C1296
:10106D001B28120114D394634005741712017C12CE
:10107D001B28121B5AD3940C4008900001740C12BB
:10108D00018E121B28121B5A2401FFE433FE7C0033
:10109D007D0D1201B07D05120217120114FD1313FF
:1010AD00543F2DFDE433CD2FFFED3EFE9000021297
:1010BD00012D7C002FFFEC3ECF24DCCF34FFFE7DD5
:1010CD0007120217ED121B54121B60D39407400632
:1010DD00121B28121B52121B28121B607003121BAD
:1010ED005290000412012DC394184007900004E49F
:1010FD0012018E90000512012DC3943C4007900003
:10110D0005E412018E90000612012DC3943C400798
:07111D00900006E412018EB0
:0111240022A8
:101A52009000E3121B429000F574FFF0A3741CF097
:101A6200A374E6F09000E3121B2B121B609000F8A7
:101A7200F090000412012D9000F9F090000512017F
:101A82002D9000FAF090000612012D9000FBF090CC
:081A920000E6121B2B020A4BB7
:101BA1009000E3121B429000F574FFF0A3741CF047
:101BB100A374FBF09000E3121B2B1201149000F8A8
:101BC100F0121B5A9000F9F090000212012D9000C2
:0B1BD100FAF09000E6121B2B020A4BFA
:06100000040D00000000D9
:0A1E9F0074FF120437EC4D4E4F2281
:011ED30022EC
:101E6300438E807589F3758A9A758CA9C28DD28C3D
:031E7300D2A922CF
:091EB200AF10AE0FAD0EAC0D2215
:03000B00021D30A3
:101D3000C0E0C0D0E5102401F510E4350FF50FE444
:101D4000350EF50EE4350DF50DC28DD0D0D0E03254
:101D8800E4F5B275B178759202F59190FE1174E0A0
:0A1D9800F090FE137478F0D2AF2231
:061D6D009000F212046A6E
:101D730075081D7509B7D509FDD508FA9000F2124B
:041D83001E9F70EC43
:011D87002239
:061DFD0090010812046AC7
:0F1E030000750805D508FD900108121E9F70F1AB
:011E120022AD
:101D5000EF7005A2B333FF22EFB40104A2B48006F2
:0D1D6000EFB40206A2B5E433FF227F00229B
:03000000021606DF
:0C160600787FE4F6D8FD75817802164D5F
:10001E00E709F608DFFA8046E709F208DFFA803EC4
:10002E0088828C83E709F0A3DFFA8032E309F608B1
:10003E00DFFA8078E309F208DFFA807088828C8319
:10004E00E309F0A3DFFA806489828A83E0A3F608CD
:10005E00DFFA805889828A83E0A3F208DFFA804CA7
:10006E0080D280FA80C680D4806980F2803380107E
:10007E0080A680EA809A80A880DA80E280CA8033E7
:10008E0089828A83ECFAE493A3C8C582C8CCC5835F
:10009E00CCF0A3C8C582C8CCC583CCDFE9DEE7802F
:1000AE000D89828A83E493A3F608DFF9ECFAA9F0AE
:1000BE00EDFB2289828A83ECFAE0A3C8C582C8CC04
:1000CE00C583CCF0A3C8C582C8CCC583CCDFEADE1D
:1000DE00E880DB89828A83E493A3F208DFF980CC7F
:1000EE0088F0EF60010E4E60C388F0ED2402B40478
:1000FE000050B9F582EB2402B4040050AF2323451F
:06010E00822390006E73D5
:10011400BB010689828A83E0225002E722BBFE02E9
:09012400E32289828A83E493221C
:10012D00BB010CE58229F582E5833AF583E0225087
:10013D0006E92582F8E622BBFE06E92582F8E222D1
:0D014D00E58229F582E5833AF583E49322EB
:10015A00BB010989828A83F8E028F022500327F735
:10016A0022BBFE05F8E328F3228A838982F8E49306
:02017A00282239
:10017C00BB010689828A83F0225002F722BBFE0162
:02018C00F3225C
:10018E00F8BB010DE58229F582E5833AF583E8F0A7
:10019E00225006E92582C8F622BBFE05E92582C853
:0201AE00F2223B
:1001B000EF8DF0A4A8F0CF8CF0A428CE8DF0A42E63
:0201C000FE221D
:1001C200BC000BBE0029EF8DF084FFADF022E4CC21
:1001D200F875F008EF2FFFEE33FEEC33FCEE9DECEA
:1001E200984005FCEE9DFE0FD5F0E9E4CEFD22ED30
:1001F200F8F5F0EE8420D21CFEADF075F008EF2F7A
:10020200FFED33FD4007985006D5F0F222C398FD6A
:050212000FD5F0EA2207
:10021700C2D5EC30E709B2D5E4C39DFDE49CFCEE02
:1002270030E715B2D5E4C39FFFE49EFE1201C2C3B7
:10023700E49DFDE49CFC80031201C230D507C3E4B2
:060247009FFFE49EFE2271
:10024D00A3F8E0C5F025F0F0E58215827002158364
:06025D00E0C838F0E822C1
:10026300E88FF0A4CC8BF0A42CFCE98EF0A42CFC3A
:100273008AF0EDA42CFCEA8EF0A4CDA8F08BF0A4B8
:100283002DCC3825F0FDE98FF0A42CCD35F0FCEB17
:100293008EF0A4FEA9F0EB8FF0A4CFC5F02ECD39DC
:0F02A300FEE43CFCEAA42DCE35F0FDE43CFC2249
:1002B20075F008758200EF2FFFEE33FECD33CDCC03
:1002C20033CCC58233C5829BED9AEC99E582984086
:1002D2000CF582EE9BFEED9AFDEC99FC0FD5F0D663
:1002E200E4CEFBE4CDFAE4CCF9A88222B800C1B98D
:1002F2000059BA002DEC8BF084CFCECDFCE5F0CBCB
:10030200F97818EF2FFFEE33FEED33FDEC33FCEB03
:1003120033FB10D703994004EB99FB0FD8E5E4F9BE
:10032200FA227818EF2FFFEE33FEED33FDEC33FCAB
:10033200C933C910D7059BE99A4007EC9BFCE99A9F
:10034200F90FD8E0E4C9FAE4CCFB2275F010EF2FE4
:10035200FFEE33FEED33FDCC33CCC833C810D707E4
:100362009BEC9AE899400AED9BFDEC9AFCE899F81F
:0E0372000FD5F0DAE4CDFBE4CCFAE4C8F922B2
:101ADF00C2D5E830E70FB2D5E4C39BFBE49AFAE432
:101AEF0099F9E498F8EC30E717B2D5121B151202EA
:101AFF00EEE4C39BFBE49AFAE499F9E498F88003C7
:101B0F001202EE30D50DE4C39FFFE49EFEE49DFD6F
:041B1F00E49CFC2224
:10038000EB9FF5F0EA9E42F0E99D42F0E89C45F0D3
:01039000224A
:10039100E8600FECC313FCED13FDEE13FEEF13FF4A
:0303A100D8F1226E
:1003A400E86010ECA2E713FCED13FDEE13FEEF136F
:0403B400FFD8F0225C
:1003B800E8600FEFC333FFEE33FEED33FDEC33FCA3
:0303C800D8F12247
:1003CB00BB010789828A8302050F5005E9F80205F4
:1003DB0003BBFE05E9F802051B89828A8302052708
:1003EB00BB010DE58229F582E5833AF58302050F02
:1003FB005007E92582F8020503BBFE07E92582F8C1
:10040B0002051BE58229F582E5833AF58302052770
:10041B00BB010789828A8302046A5005E9F8020549
:0A042B0037BBFE05E9F80205432285
:100435007401FF3395E0FEFDFCA3A3A3E02FFFF0BD
:10044500E582158270021583E03EFEF0E582158295
:1004550070021583E03DFDF0E5821582700215837B
:05046500E03CFCF02268
:0C046A00ECF0A3EDF0A3EEF0A3EFF02205
:10047600A8828583F0D083D08212048D12048D1257
:10048600048D12048DE473E493A3C583C5F0C5837C
:10049600C8C582C8F0A3C583C5F0C583C8C582C8D0
:0104A6002233
:1004A700BB010DE58229F582E5833AF583020476DF
:1004B7005007E92582F802054FBBFE07E92582F8B8
:0404C70002056822A0
:0C04CB00A42582F582E5F03583F583223C
:1009E600E50824F5F582E43400F583E00508229055
:1009F60000F23007039000F5E475F001120581025C
:100A060001142000E97F2ED2008018EF540F2490A5
:100A1600D43440D4FF30040BEF24BFB41A00500383
:100A26002461FFE50960021509050CE50C70020555
:100A36000B30070E9000F2E475F001120581EF020B
:100A4600017C021CBF7403D2078003E4C207F508C9
:100A56009000F2120598E4F509F50BF50CE509602E
:100A6600077F20120A2980F5750AFFC201C200C25B
:100A760002C203C205C206C2081209F5FF700D3094
:100A860007057F00120A3AAF0CAE0B22B4255FC2EF
:100A9600D5C2041209F5FF24D0B40A00501A75F025
:100AA6000A780930D50508B6FF0106C6A426F62041
:100AB600D5047002D20380D924CFB41A00EF5004B3
:100AC600C2E5D204020C3BD20180C6D20080C0D25D
:100AD6000280BCD2D580BAD20580B47F20120A2902
:100AE6002002077401B5090040F11209E6FF120A57
:100AF60029020A63D208D20680951209E6FB12097A
:100B0600E6FA1209E6F94A4B7006790C7A0D7BFF74
:100B160020022EE509602A7E008E8275830012016E
:100B26002D60060EEE650A70F0C2D5EBC0E0EAC095
:100B3600E0E9C0E0EE120C82D0E0F9D0E0FAD0E0B5
:100B4600FB120114FF60AAEBC0E0EAC0E0E9C0E0D6
:100B5600120A29D0E02401F9D0E03400FAD0E0FBF3
:100B6600E50A0460DCD50AD980877BFF7A0C797E9A
:100B7600D202809C791080027908C206C2088008D9
:100B8600D2D5790A8004790AC2D5E50A047002F53D
:100B96000AE4FAFDFEFF1209E6FC7B0820011312A7
:100BA60009E6FD7B1030000A1209E6FE1209E6FF8F
:100BB6007B20EC3382D592D55013C3E43000069FD8
:100BC600FFE49EFEE42001039DFDE49CFCE4CBF8DB
:100BD600C201EC700CCFCECDCCE824F8F870F380CF
:100BE60017C3EF33FFEE33FEED33FDEC33FCEB338F
:100BF600FB994002FB0FD8E9EB300105F8D0E0C4C1
:100C060048B201C0E00AEC4D4E4F78207B0070C21E
:100C1600EAB50A0040BCC0E0120C84D0F0D0E02057
:100C26000104C4C0E0C4B201C0F0120A12D0F0D56B
:100C3600F0EB020A631205A10B00530B7A580AD196
:100C46004C0ACD420B7E4F0B86440B86490AE6437F
:080C56000B8C550B70460B706E
:100C5E00450B70470D2C500AD52D0AD92E0AFC2BA8
:100C6E000ADD230AFA200D152A0A954800000AF417
:100C7E003F3F3F00790AA2D5200314300509B91071
:100C8E00020404B9080104A2D52006025001042072
:100C9E0002689202B509005034C0E07F203003197B
:100CAE007F30A20272067205500F120CDBC202C216
:100CBE0006C205C2087F30800F300503E9C0E0127E
:100CCE000A29300503D0E0F9D0E0B509CC3005177C
:100CDE007F30B9100C120A297F583004077F7880B4
:100CEE0003B90803120A293002057F2D020A297F53
:100CFE00202008F87F2B2006F322920280CF286E48
:100D0E00756C6C2900D2011209E63001F8C2017827
:100D1E000930D50108F6020A952D5043495812099B
:100D2E00E62403B405004001E4900D2793120A1A3D
:0D0D3E00743A120A1AD203750904020B7AE6
:101E2800E4FFFE120114600C0FEF70010E09E97057
:051E3800F20A80EF2218
:1004D700EF4E6012EF60010EEDBB010B89828A833C
:1004E700F0A3DFFCDEFA2289F05007F709DFFCA949
:0C04F700F022BBFEFCF309DFFCA9F022A0
:101612000205C7E493A3F8E493A34003F68001F222
:1016220008DFF48029E493A3F85407240CC8C333D9
:10163200C4540F4420C8834004F456800146F6DFA8
:10164200E4800B0102040810204080900EAFE47E7B
:10165200019360BCA3FF543F30E509541FFEE4939D
:10166200A360010ECF54C025E060A840B8E493A364
:10167200FAE493A3F8E493A3C8C582C8CAC583CA8F
:10168200F0A3C8C582C8CAC583CADFE9DEE780BE47
:0110060000E9
:0C050300E6FC08E6FD08E6FE08E6FF2224
:0C050F00E0FCA3E0FDA3E0FEA3E0FF225F
:0C051B00E2FC08E2FD08E2FE08E2FF221C
:10052700E493FC740193FD740293FE740393FF221A
:0C053700ECF608EDF608EEF608EFF622F0
:0C054300ECF208EDF208EEF208EFF222F4
:10054F00D083D082E493F608740193F60874029373
:09055F00F608740393F6740473AA
:10056800D083D082E493F208740193F20874029362
:09057800F208740393F274047399
:10058100F8E0FBA3A3E0F925F0F0E5821582700203
:070591001583E0FA38F022A7
:09059800EBF0A3EAF0A3E9F02264
:1005A100D083D082F8E4937012740193700DA3A3E9
:1005B10093F8740193F5828883E4737402936860FD
:0605C100EFA3A3A380DFFD
:101CBF00EFB40A07740D121CCA740A309811A89950
:101CCF00B8130CC2983098FDA899C298B811F63085
:071CDF0099FDC299F599225D
:00000001FF
