:100000000223C302000E02000E2222022F6B900177
:10001000B77405F07D607F11023108022933C0E01A
:10002000C0F0C083C082C0D075D000C000C001C085
:1000300002C003C004C005C006C0079001C5E5FCAE
:10004000F07F0612309F9001C2EFF07F0212309FC6
:10005000A3EFF07F0412309FA3EFF09001C2E030D5
:10006000E1031200099001C2E030E203122C21905A
:1000700001C3E030E0031225BF9001C3E030E1038B
:10008000122F8B9001C3E030E203122FEA9001C4DB
:10009000E030E103121C479001C2E030E00312009F
:1000A0000A9001C5E0F5FCD007D006D005D004D0F9
:1000B00003D002D001D000D0D0D082D083D0F0D0F5
:1000C000E032121F1A121F4202244F02001E0203C6
:1000D000DFE86480F8E933E83360110460F0ED3361
:1000E000EC337009E8FCE9FDEAFEEBFF220460DE78
:1000F000D3EB9FEA9EE99DE8C2E78CF0C2F795F04A
:10010000400CE8CCF8E9CDF9EACEFAEBCFFB1203CC
:10011000AA85D0F05804700320D5B3E804700750C6
:1001200002B2D50203E992D5EC0460F7E4CCC0E05A
:10013000C398F8603B94186008400DD0E0FB0203C0
:10014000C1E4FBFAC9FC8028E830E406E4C9FBE41A
:10015000CAFCE830E305E4C9CACBFCE854076010E8
:10016000F8C3E913F9EA13FAEB13FBEC13FCD8F12B
:1001700030F52FC3E49CFCEF9BFFEE9AFEED99FD5A
:10018000D0E0FBEF4E4D4C701222DB030203E6EC95
:100190002CFCEF33FFEE33FEED33FDED30E7EB02E9
:1001A00003C1EF2BFFEE3AFEED39FDD0E0FB50131B
:1001B0000BBB00030203E9ED13FDEE13FEEF13FF8B
:1001C000EC13FC0203C1EC4D6011E8497017ED33EC
:1001D000EC3304600DE4FCFFFEFD22E933E8330458
:1001E00070F80203DF1203AA58046009E4CC2481EA
:1001F00050062850090203E92840030203E6C0E044
:10020000EB4A7044B98006D0E0FB0203D5EF4E7094
:100210001CBD8008EBFFEAFEE9FD80EBE98DF0A450
:10022000FEE5F00202AFE9CDF9EAFEEBFFEF89F05F
:10023000A4FCE5F0CE89F0A42EFFE435F0CD89F0E2
:10024000A42DFEE435F08067EF4E7005BD80D780A9
:10025000C3EF8BF0A4ACF0EE8BF0A42CFCE435F0F3
:10026000F8EF8AF0A42CE5F038FCE433CB8DF0A451
:100270002CFCE5F03BF8EE8AF0A42CFCE5F038F815
:10028000E433CF89F0A42CFCE5F038CF3400CE89DC
:10029000F0A42FFFE5F03EFEE433C98DF0A42EFE5E
:1002A000E5F039CD8AF0A42FFFE5F03EFEE43DFDF8
:1002B00033D0E0FB50070BBB000F0203E9EC2CFC32
:1002C000EF33FFEE33FEED33FD0203C10203E9EC31
:1002D0005D046005E8590470030203DF1203AA58A5
:1002E0000460F6EC4860F2EC7004FDFEFF22C8608A
:1002F000DB2481C85009C398600250060203E698C7
:1003000050CAF582E9294B4A7005AB820203D575C4
:10031000F0007C1A7880C3EF9BEE9AED99400DC3F4
:10032000EF9BFFEE9AFEED99FDE842F0DC23ACF086
:10033000D0E0FFD0E0FED0E0FDAB8220E7101BEB69
:1003400060BAEC2CFCEF33FFEE33FEED33FD02031D
:10035000C1E803F830E705C0F075F000EF2FFFEEBD
:1003600033FEED33FD40B830E7C280AA75F020803F
:100370000E75F010800575F0087D007E007F00335B
:1003800092D530D50312091EEC334010EF33FFEE47
:1003900033FEED33FDEC33FCD5F0ED22E5F0247EA9
:1003A000A2D513CC92E7CDCEFF22E9D2E7C933E83C
:1003B00033F892D5EDD2E7CD33EC33FC5002B2D511
:1003C00022EC30E7100FBF000C0EBE00080DBD0080
:1003D000040BEB6014A2D5EB13FCED92E7FD227445
:1003E000FFFCFDFEFF22E480F8A2D574FF13FC7D24
:1003F00080E480EFF920E73624F950037907E4F42C
:100400002402FBE582158270021583DBF6E024FBF3
:10041000501BE96014E4F0E582158270021583E058
:1004200004F0B40A08E4F0D9EE7401F00A22C2D54F
:1004300022ED33EC3392D5FA602AB4FF33EDC2E7F4
:100440007BFF60067A047956E4227A04795F20D52E
:10045000047A04795A224E614E002B494E46002DF3
:10046000494E4600E47A08F0A3DAFC7B00740722C8
:10047000C083C082ECC0E0EDC0E0EEC0E0EFC0E0C1
:10048000EA75F010A4CAABF075F04DA42BFBE4356F
:10049000F0FCEA2410FAEB34C5FBEC34D9FCEDC2D5
:1004A000E7FF75F056A4F42411C5F0F434C58FF0BD
:1004B000A42AE5F03BE43CF020E714120566D0E006
:1004C000FFD0E0FED0E0FDD0E0FC1202CF8014F4BB
:1004D00004120566D0E0FFD0E0FED0E0FDD0E0FCE5
:1004E0001201C6D082D083E0FAEDD2E7CD33EC33EF
:1004F0002482FBE4C3CF33CFCE33CECD33CD33DB39
:10050000F37B0775F00A846004F0A31B0AE5F0F0A2
:10051000A38FF0740AA4FFACF08EF0740AA42CFE32
:10052000ACF050010C8DF0740AA42CFDE435F0F011
:10053000A3DBDE7407223F8000004120000042C898
:100540000000447A0000461C400047C35000497434
:1005500024004B1896804CBEBC205A0E1BCA675311
:10056000C21C749DC5AEFB60065407601C23231299
:100570000594EB5438600912058012058F1201C6EC
:10058000ECF8EDF9EEFAEFCB22EB12058F80F15487
:100590003803241C900536FE93FC0EEE93FD0EEE00
:1005A000930ECE93FF22E709F608DFFA8046E709AB
:1005B000F208DFFA803E88828C83E709F0A3DFFA35
:1005C0008032E309F608DFFA8078E309F208DFFAFF
:1005D000807088828C83E309F0A3DFFA80648982CB
:1005E0008A83E0A3F608DFFA805889828A83E0A331
:1005F000F208DFFA804C80D280FA80C680D480690D
:1006000080F28033801080A680EA809A80A880DA09
:1006100080E280CA803389828A83ECFAE493A3C89B
:10062000C582C8CCC583CCF0A3C8C582C8CCC5835D
:10063000CCDFE9DEE7800D89828A83E493A3F608A4
:10064000DFF9ECFAA9F0EDFB2289828A83ECFAE06B
:10065000A3C8C582C8CCC583CCF0A3C8C582C8CC0A
:10066000C583CCDFEADEE880DB89828A83E493A35A
:10067000F208DFF980CC88F0EF60010E4E60C3888D
:10068000F0ED2402B4040050B9F582EB2402B40466
:100690000050AF23234582239005F673BB010689E2
:1006A000828A83E0225002E722BBFE02E322898293
:1006B0008A83E49322BB010CE58229F582E5833A23
:1006C000F583E0225006E92582F8E622BBFE06E922
:1006D0002582F8E222E58229F582E5833AF583E472
:1006E0009322BB010989828A83F8E028F022500313
:1006F00027F722BBFE05F8E328F3228A838982F8D4
:10070000E4932822BB010689828A83F0225002F7F3
:1007100022BBFE01F322F8BB010DE58229F582E53B
:10072000833AF583E8F0225006E92582C8F622BB19
:10073000FE05E92582C8F222EF8DF0A4A8F0CF8C47
:10074000F0A428CE8DF0A42EFE22BC000BBE002902
:10075000EF8DF084FFADF022E4CCF875F008EF2FB8
:10076000FFEE33FEEC33FCEE9DEC984005FCEE9D75
:10077000FE0FD5F0E9E4CEFD22EDF8F5F0EE842091
:10078000D21CFEADF075F008EF2FFFED33FD4007F2
:10079000985006D5F0F222C398FD0FD5F0EA22C298
:1007A000D5EC30E709B2D5E4C39DFDE49CFCEE3006
:1007B000E715B2D5E4C39FFFE49EFE12074AC3E4E7
:1007C0009DFDE49CFC800312074A30D507C3E49FDB
:1007D000FFE49EFE22C5F0F8A3E028F0C5F0F8E59E
:1007E00082158270021583E038F022A3F8E0C5F08C
:1007F00025F0F0E582158270021583E0C838F0E834
:1008000022E88FF0A4CC8BF0A42CFCE98EF0A42C71
:10081000FC8AF0EDA42CFCEA8EF0A4CDA8F08BF0BD
:10082000A42DCC3825F0FDE98FF0A42CCD35F0FCBB
:10083000EB8EF0A4FEA9F0EB8FF0A4CFC5F02ECD87
:1008400039FEE43CFCEAA42DCE35F0FDE43CFC226C
:1008500075F008758200EF2FFFEE33FECD33CDCC5F
:1008600033CCC58233C5829BED9AEC99E5829840E2
:100870000CF582EE9BFEED9AFDEC99FC0FD5F0D6BF
:10088000E4CEFBE4CDFAE4CCF9A88222B800C1B9E9
:100890000059BA002DEC8BF084CFCECDFCE5F0CB27
:1008A000F97818EF2FFFEE33FEED33FDEC33FCEB60
:1008B00033FB10D703994004EB99FB0FD8E5E4F91B
:1008C000FA227818EF2FFFEE33FEED33FDEC33FC08
:1008D000C933C910D7059BE99A4007EC9BFCE99AFC
:1008E000F90FD8E0E4C9FAE4CCFB2275F010EF2F41
:1008F000FFEE33FEED33FDCC33CCC833C810D70741
:100900009BEC9AE899400AED9BFDEC9AFCE899F87B
:100910000FD5F0DAE4CDFBE4CCFAE4C8F922C3E465
:100920009FFFE49EFEE49DFDE49CFC22EB9FF5F01E
:10093000EA9E42F0E99D42F0E89C45F022E8600F13
:10094000ECC313FCED13FDEE13FEEF13FFD8F12201
:10095000E86010ECA2E713FCED13FDEE13FEEF13BD
:10096000FFD8F022E8600FEFC333FFEE33FEED3324
:10097000FDEC33FCD8F122BB010789828A83020B8C
:10098000525005E9F8020B46BBFE05E9F8020B5E82
:1009900089828A83020B6ABB010DE58229F582E513
:1009A000833AF583020B525007E92582F8020B4681
:1009B000BBFE07E92582F8020B5EE58229F582E598
:1009C000833AF583020B6ABB010789828A83020A94
:1009D0003A5005E9F8020B7ABBFE05E9F8020B86EE
:1009E00022BB010DE58229F582E5833AF583020AEF
:1009F0003A5007E92582F8020B7ABBFE07E9258207
:100A0000F8020B86227401FF3395E0FEFDFCA3A3E0
:100A1000A3E02FFFF0E582158270021583E03EFE11
:100A2000F0E582158270021583E03DFDF0E5821548
:100A30008270021583E03CFCF022ECF0A3EDF0A301
:100A4000EEF0A3EFF022A8828583F0D083D082124B
:100A50000A5D120A5D120A5D120A5DE473E493A353
:100A6000C583C5F0C583C8C582C8F0A3C583C5F0DA
:100A7000C583C8C582C822BB010DE58229F582E580
:100A8000833AF583020A465007E92582F8020B9261
:100A9000BBFE07E92582F8020BAB22A42582F58272
:100AA000E5F03583F58322F8E0FBA3A3E0F925F018
:100AB000F0E582158270021583E0FA38F022EBF03F
:100AC000A3EAF0A3E9F022D083D082F8E493701275
:100AD000740193700DA3A393F8740193F582888336
:100AE000E4737402936860EFA3A3A380DFEC8EF03D
:100AF000A4CCC5F0CCCDF8EFA4CEC5F02DFDE43CE0
:100B0000FCE8A42EC8C5F03DFDE43CFCEFA4FFE5E5
:100B1000F028FEE43DFDE43CFC22EF4E6012EF6065
:100B2000010EEDBB010B89828A83F0A3DFFCDEFAA4
:100B30002289F05007F709DFFCA9F022BBFEFCF385
:100B400009DFFCA9F022E6FC08E6FD08E6FE08E65F
:100B5000FF22E0FCA3E0FDA3E0FEA3E0FF22E2FC15
:100B600008E2FD08E2FE08E2FF22E493FC74019330
:100B7000FD740293FE740393FF22ECF608EDF60871
:100B8000EEF608EFF622ECF208EDF208EEF208EFCE
:100B9000F222D083D082E493F608740193F60874AD
:100BA0000293F608740393F6740473D083D082E43E
:100BB00093F208740193F208740293F20874039399
:100BC000F2740473E50824DFF582E43401F583E070
:100BD0000508229001DC3007039001DFE475F00185
:100BE000120AA702069C2000E97F2ED2008018EF8F
:100BF000540F2490D43440D4FF30040BEF24BFB4FE
:100C00001A0050032461FFE50960021509050CE58F
:100C10000C7002050B30070E9001DCE475F0011238
:100C20000AA7EF020704022EFE7403D2078003E432
:100C3000C207F5089001DC120ABEE4F509F50BF5D0
:100C40000CE50960077F20120C0780F5750AFFC2CA
:100C500001C200C202C203C205C206C208120BD3FF
:100C6000FF700D3007057F00120C18AF0CAE0B2281
:100C7000B4255FC2D5C204120BD3FF24D0B40A003E
:100C8000501A75F00A780930D50508B6FF0106C676
:100C9000A426F620D5047002D20380D924CFB41A3A
:100CA00000EF5004C2E5D204020F0AD20180C6D27E
:100CB0000080C0D20280BCD2D580BAD20580B47F79
:100CC00020120C072002077401B5090040F1120B35
:100CD000C4FF120C07020C41D208D2068095120BF9
:100CE000C4FB120BC4FA120BC4F94A4B7006790804
:100CF0007A107BFF20022EE509602A7E008E827525
:100D000083001206B560060EEE650A70F0C2D5EBE0
:100D1000C0E0EAC0E0E9C0E0EE120F6BD0E0F9D02D
:100D2000E0FAD0E0FB12069CFF60AAEBC0E0EAC04C
:100D3000E0E9C0E0120C07D0E02401F9D0E0340073
:100D4000FAD0E0FBE50A0460DCD50AD98087D2023C
:100D500080A2120F4D60F7E50A7001041203F4A996
:100D60000A600DE50A600914F50A120FF5EF60F349
:100D7000EA30E702F404C3995079EAF4250A043012
:100D8000E701E404F50A800D120F4D60C1EA050A7F
:100D9000250A1203F4EA90020BF030E701E4250A79
:100DA00004D50A0420050114120F6BE4C0E0120FF1
:100DB000F590020BE0601320E70714F0120BEF80B0
:100DC0002204F0D0E014C0E07F00120BEFE50A60CF
:100DD00007120BE6150A800B300503120BE6D0E074
:100DE000020C41D0E00480C4120F4D609EE50A045D
:100DF0001203F490020BEAF0E50A200502600104F8
:100E00002404120F6B74FF04C0E0120FF5120BEFF5
:100E1000E50A2005026003120BE6D0E0B50AE87F80
:100E200045120BF990020BE07F2B30E7047F2DF485
:100E300004C0E0120C07D0E075F00A84C0F0120B79
:100E4000F0D0E0120BF0020C41791080027908C258
:100E500006C2088008D2D5790A8004790AC2D5E58D
:100E60000A047002F50AE4FAFDFEFF120BC4FC7BD3
:100E700008200113120BC4FD7B1030000A120BC4B2
:100E8000FE120BC4FF7B20EC3382D592D55013C3E6
:100E9000E43000069FFFE49EFEE42001039DFDE494
:100EA0009CFCE4CBF8C201EC700CCFCECDCCE82496
:100EB000F8F870F38017C3EF33FFEE33FEED33FD28
:100EC000EC33FCEB33FB994002FB0FD8E9EB30012C
:100ED00005F8D0E0C448B201C0E00AEC4D4E4F78AE
:100EE000207B0070C2EAB50A0040BCC0E0120F6D62
:100EF000D0F0D0E0200104C4C0E0C4B201C0F012C0
:100F00000BF0D0F0D5F0EB020C41120AC70CDE5307
:100F10000E49580CAF4C0CAB420E4D4F0E55440EC3
:100F200055490CC4430E5B550D88460DE8450D52DE
:100F3000471028500CB32D0CB72E0CDA2B0CBB230A
:100F40000CD82010112A0C734800000CD2E50AB40A
:100F5000FF03750A06120BC4FC120BC4FD120BC46E
:100F6000FE120BC4FF900204020431790AA2D520BC
:100F70000314300509B910020404B9080104A2D50C
:100F80002006025001042002689202B50900503484
:100F9000C0E07F203003197F30A202720672055034
:100FA0000F120FC4C202C206C205C2087F30800FF2
:100FB000300503E9C0E0120C07300503D0E0F9D09A
:100FC000E0B509CC3005177F30B9100C120C077F43
:100FD000583004077F788003B90803120C073002E9
:100FE000057F2D020C077F202008F87F2B2006F3B9
:100FF00022920280CF7F00B40700500B2404F582B8
:10100000E43402F583E0FF22286E756C6C2900D26F
:1010100001120BC43001F8C201780930D50108F67D
:10102000020C732D50434958120BC42403B405001D
:101030004001E490102393120BF8743A120BF8D28B
:1010400003750904020E4943BA80123008122F4971
:101050001231C01231861230E6438E4053890F752B
:101060008B40758DA2C28FD28ED2AB7BFF7A327944
:10107000D39001E07401F0E4FD1216529001D512F4
:101080000A4600FFFFFF7F091225477FF47E017D9E
:10109000007C00123042122FAB12135C7FE87E03FB
:1010A0007D007C001230421200C23009031231F27E
:1010B000E5436051E53E704AE55264106019E5521F
:1010C0001220B7D3EF9403EE648094804005E4F5DA
:1010D00052802F0552802B90021712203A12069C44
:1010E000600C14FF90021BE0FEEFC39E50099002BB
:1010F0001CE0120704800B90021712203A74FF12B2
:1011000006E2E4F543E54A6051E5457042E552B434
:10111000102B90021712203A12069C1220B7900250
:101120001CE0FDD3EF9D7480F86E98400990021B7F
:10113000E0120704802174011206E2801A90022254
:10114000E01220B77C007D0312074AEDF08008E52D
:1011500045B4020375C760E4F54AE5516066E54CA5
:101160007027E552B4101190021DE004F0E0D39412
:1011700003404E7401F0804990021AE07F00700233
:101180007F0190021AEFF08038E54C64027032E57E
:1011900052B4100FE4F55290022A04122043120BAD
:1011A0001A801E90020DE552F075521090021D74C7
:1011B00001F078237C02FD1220BE7E007F0712061C
:1011C00076E4F551900222E0241FF582E43402F522
:1011D00083E0FF7E0012319AE5526003B40114905F
:1011E00001D1120A46000001F412134F605C12286C
:1011F00029804BE552B410299001D1120A46000013
:10120000012CAF25AE24AD23AC22122C5EEF603A48
:101210001214E0851025850F24850E23850D22806C
:1012200029E55264026005E552B4031E9001D11213
:101230000A46000001F412134F600F122A30851085
:1012400035850F34850E33850D3290022AE0606CAF
:1012500090020DE0B40110900227E53AF0A3E53BBF
:10126000F0A3E53CF08012900223E536F0A3E537C9
:10127000F0A3E538F0A3E539F0900224E0FDA3E007
:10128000FBA3E0149001D0F0900227E09001D1F090
:10129000900228E09001D2F0900229E09001D3F072
:1012A000900223E0FF1228DB7E007F077D007B0198
:1012B0007A027923120B1AE490022AF090021AE0C3
:1012C000602DE552641060279001D1120A4600009B
:1012D0000096AF31AE30AD2FAC2E122C5EEF600F0A
:1012E000121D2D851031850F30850E2F850D2E9006
:1012F000021EE0602DE552641060279001D1120AB1
:10130000460001D4C0AF2DAE2CAD2BAC2A122C5E02
:10131000EF600F1222A285102D850F2C850E2B85D4
:101320000D2A9001D1120A46000003E8AF29AE2829
:10133000AD27AC26122C5EEF70030210AA12135CCC
:10134000851029850F28850E27850D260210AAAF46
:1013500035AE34AD33AC32122C5EEF227B017A0213
:10136000790E1217B62243021F0102074102220220
:1013700041021A0141021E0101520041022A0041AC
:1013800002160041021D01153D020100000000008F
:101390000101000000000000010000000000410207
:1013A0000C00410023011E5F00000000000000004F
:1013B000000000000000000000000000000000002D
:1013C000000000000000602400C8000000000000D1
:1013D000000000000000000000000000000000000D
:1013E000000000000000000000000000000060A4F9
:1013F000002400C0000000020000000804000039C2
:1014000027000020060000D1220000E1220000E0B9
:10141000030000E1210000F121000020220000F182
:10142000230000E123000004080000F0230000A5D1
:101430002A000011210000252A000051210000D0BF
:10144000210000B1210000F0030000052800003158
:1014500002000052050000110100003017000032A8
:1014600013000031230000D023000033230000D2FA
:10147000230000E1210000042800003103000018CF
:101480000500003A0300000A140000C4030000092C
:101490002400000A14004100000042000100016025
:1014A0002000030000000000000000000000000019
:1014B000000000000000000000000000000000002C
:1014C000000000040D0000000043022BFF334043E6
:1014D000022E0000004302310000004100F5000030
:1014E00090020CE07F0070027F0190020CEF12204E
:1014F00043120B1A90020DE060030215879001DF82
:1015000074FFF0A37432F0A374ECF0900227E09023
:1015100001E2F0900228E09001E3F0900229E090CF
:1015200001E4F012204A121648701B1220AA74021D
:10153000F0A37427F0741712206D700302162B7835
:10154000547C0002161C90021DE0640270171220E9
:10155000AA7402F07428122069700302162B7857BF
:101560007C0002161C90021DE06403600302162B2F
:101570001220AA7402F07429122069700302162B3B
:10158000785A7C0002161C90020DE0640160030290
:10159000162B9001DF74FFF0A37433F0A37402F0F4
:1015A000900223E09001E2F0900224E09001E3F049
:1015B000900225E09001E4F012204A121648701DB6
:1015C0001220AA7402F0A37423F090021C7463F03A
:1015D0007417122081605478557C00803F90021D62
:1015E000E0640270171220AA7402F0A37424F0744D
:1015F0000C12207B603578577C00802090021DE023
:10160000B403289002177401F0A37402F0A37425A8
:10161000F0741F12207B6013785A7C007D007BFFE2
:101620007A3279FF7E007F02120676E490021AF089
:10163000FB7A00795390020DE07D01B401027D0038
:10164000E49001E0F0021652120C2990021DE064B1
:1016500001229001DFEDF09001DCEBF0A3EAF0A3B2
:10166000E9F0123171121F79D3EF9409EE94004022
:10167000067E007F0980009001E5EEF0A3EFF012F6
:101680001F1A7F247A0079C8121F859001E5E0FEB9
:10169000A3E0FF4E700302175CEF24FFFFEE34FF60
:1016A0009001E3F0A3EFF09001E3E0FEA3E0FFC3BD
:1016B000EE64809480500302175C9001DCE0FBA391
:1016C000E0FAA3E0F98F828E831206B5FF607C12E8
:1016D0001B51C004C005C006C0079001E1121F697C
:1016E000C333CE33CED8F9121F29D007D006D00588
:1016F000D004120A3A9001DFE0601A74C82B121F5E
:101700002EC083C082121EE7FFEE4480FEECD08222
:10171000D083120A3A9001E0E06022A3121F69C34D
:1017200033CE33CED8F9121F8EC083C082121EE78B
:10173000FFEE4440FEECD082D083120A3A9001E2E0
:10174000E004F070069001E1E004F09001E4E02490
:10175000FFF09001E3E034FFF00216A7121F7912A8
:101760001F66C333CE33CED8F9121F29121EE77875
:1017700010121F0474C82B121F2E121EE7780812B5
:101780001F04121F66C333CE33CED8F9121F8E1238
:101790001EE7FF121F089001E4E004F070069001BC
:1017A000E3E004F09001E3E07004A3E0640970AFAB
:1017B000121F4202244F9001CDEBF0A3EAF0A3E9FF
:1017C000F0E4A3F0A3F0A3F0A3F0A3F0A3F0A3121E
:1017D0000A46000000009001DA120A4600000000EC
:1017E0009001DE120A4600000000E49001E2F0A33E
:1017F000F01230CC7F501227031230421230B1EF7A
:1018000030E7207FE47E057D007C0012315C900192
:10181000E2E475F0011207EBFEC3E5F09464EE9488
:101820000040D912321A7F711231467F01122D8188
:101830009001D01218FF9001D11218FF9001D2EF41
:10184000F07F01122D819001D3EFF07F01122D81E5
:101850009001D4EFF0E4FF122D819001D5EFF0124A
:1018600032449001D11226AA9001D21226AA9001E8
:10187000D3E09001D61226DB1226C61226CC7804BD
:1018800012093D1226C61226CC9001DE120A3A90A9
:1018900001D6120A46000000009001D31226AA9039
:1018A00001D41226AA9001D5E0A31226DB1226C687
:1018B0009001D61226D1ED540FFDE4FC1226C6127B
:1018C00026CCA3120A3A9001DA1226CF1226EF791B
:1018D0004878431201C6E4FBFA794878C21200D571
:1018E00012270A1209C79001DE1226CF1226EF79BD
:1018F000C878421201C612270A9000040209E1EFDB
:10190000F07F01122D81229001CD122D5D78D07CC7
:10191000017D017BFF7A3379397E007F07120676DD
:101920007B017A0179D09001DB7407F0E4FF122883
:10193000829001D0122D49900006EF1207169001F7
:10194000D1122D49900005EF1207169001D2122DE9
:1019500049900004EF1207169001D4122D4990000F
:1019600002EF1207169001D5122D49900001EF12D7
:1019700007169001D6122D49EF120704122D4E12B0
:10198000069CD3946340057417120704122D4E125F
:101990002D75D3940C4008900001740C1207161298
:1019A0002D4E122D752401FFE433FE7C007D0D12B7
:1019B00007387D0512079F12069CFD1313543F2D17
:1019C000FDE433CD2FFFED3EFE9000021206B57C04
:1019D000002FFFEC3ECF24DCCF34FFFE7D07120743
:1019E0009FED122D6F122D7BD394074006122D4EC2
:1019F000122D6D122D4E122D7B7003122D6D900045
:101A0000041206B5C394184007900004E4120716A8
:101A10009000051206B5C3943C4007900005E412FF
:101A200007169000061206B5C3943C4007900006C6
:101A3000E4120716229000ECE054806480707290EB
:101A400000EFE0706C9000EEE070669000F2E070E5
:101A500004A3E064026003021B4A9000ECE0540F10
:101A600014601914603D24026003021B4A9000F1C7
:101A7000E070069000F0E0601A021B4A900176E0E8
:101A80006404700C9000F1E070069000F0E06003D8
:101A9000021B4A9001BA74FFF0A37432F0A374CF12
:101AA000021B3C900176E0640470069000F1E06057
:101AB00003021B4A9000F0E0FE540F9001C6F0EEC6
:101AC000146041247F600304707E9001C6E0FF7EB5
:101AD000007401A807088005C333CE33CED8F9FFC0
:101AE0009001BDE0FDEF5D9001BA600C74FFF0A3C2
:101AF0007432F0A374D1800A74FFF0A37432F0A39F
:101B000074CF80389001C6E0FF7E007401A80708FA
:101B10008005C333CE33CED8F9FF9001BEE0FDEF90
:101B20005D9001BA600C74FFF0A37432F0A374D11D
:101B3000800A74FFF0A37432F0A374CFF09001B860
:101B4000E4F0A37402F08005800002000E1231D38D
:101B5000229001E7EFF0BF2003021C2A9001E7E08A
:101B6000FBB425069000C4021C0FC3EB648094AD47
:101B7000404CD3121F7194BA5044EF3395E0FEFDF0
:101B8000FCC004C005C006C0079001EC120A460064
:101B900000002D9001F0120A460000003A9001F476
:101BA000120A46000000009001F8120A46000000E8
:101BB0000DD007D006D005D004121C308051121F62
:101BC0007094C1404FD3EF648094DA5047E033956E
:101BD000E0FEFDFCC004C005C006C0079001EC1289
:101BE0000A46000000419001F0120A460000005A27
:101BF0009001F4120A460000000E9001F8120A4605
:101C000000000027D007D006D005D004121C3012E7
:101C10001EE7FF22121F7094E1400FD3EF648094FF
:101C2000FA5007E024E0FF021B51E4FFFEFDFC2216
:101C300012233390002475F004EF120A9BEE25E086
:101C400025E02583F583221231047F1412309FAEE4
:101C500007EE30E6077D807F14123108EE20E003A6
:101C6000021D2C7B017A0179367F21122D0F900005
:101C7000F4EFF090022BE0FBA3E0FAA3E04A4B70F4
:101C800003021D2AE49001C6F09000F4E0FF9001E9
:101C9000C6E0FEC39F4003021D2A90022BE0FBA377
:101CA000E0FAA3E0F99000F5E0FD3395E08D82F5D0
:101CB000831206B5FF74362EF582E43401F583E015
:101CC0006F70319000F5E004F09000F5E0FF33957F
:101CD000E08F82F5831206B57047FD7F141231083C
:101CE000E4F5F4F5DC90FE07F07F0AFE123117757B
:101CF000C76080FE90022BE0FBA3E0FAA3E0F9129C
:101D0000069CFF9001C6E02436F582E43401F58399
:101D1000E0B507089000F57401F08005E49000F547
:101D2000F09001C6E004F0021C89D2092290001F45
:101D3000121EE7FFEC4D4E4F6003021DDC900000C9
:101D4000F0900000E0FFC394084003021DD7EFC3EA
:101D500094084002E4F0E4FFFE7D80FC900000E087
:101D6000F9F8120950121EDEFF781012093D122EEA
:101D7000D6A3EFF0121EE4FF780812093D122ED60A
:101D80009001D2EFF0121EE4FF122ED69001D3EF95
:101D9000F09001D1E0FFE4FCFDFE7810120964A888
:101DA00004A905AA06AB07A3E0FE3395E0FDFCEA13
:101DB0004EFAE94DF9E84CF8A3E0FFEB4FFFEAFEDD
:101DC000E9FDE8FC121EDEFF121F54120A3A9000D1
:101DD00000E004F0021D41E4900000F0121F5412D4
:101DE0001EE7FF9001D5120A3A7F0912254790009D
:101DF00001A3E0FF900000E02FF0E0FFB4070774BC
:101E0000FFA3F0A3F022EF7007900001F0A304F00D
:101E1000229000ECE0548064806003021EBD9000BC
:101E2000EFE024FE602314603924026003021EBD2B
:101E30009001BA74FFF0A37432F0A37450F09001D3
:101E4000B8E4F0A37412F080779001BA74FFF0A3A5
:101E50007432F0A37462F09001B8E4F0A37443F01C
:101E6000805E9000EEE01460201460362402704B17
:101E70009001BA74FFF0A37432F0A374A5F090013E
:101E8000B8E4F0A37404F080379001BA74FFF0A3B3
:101E90007432F0A374A9F09001B8E4F0A37408F0D0
:101EA000801E9001BA74FFF0A37432F0A374B1F0F5
:101EB0009001B8E4F0A3741EF08005800002000ECB
:101EC0009000F2E0FEA3E0FFD39001B9E09F900103
:101ED000B8E09E4005EEF0A3EFF01231D32290015E
:101EE000CD120A3A9001CDE0FCA3E0FDA3E0FEA3F1
:101EF000E022FC120A3A9001ECE0F8A3E0F9A3E03A
:101F0000FAA3E022FF12093DE49001E175F001120D
:101F100007EB745F25F0F8A607227F1E7B007A008E
:101F2000795F7E007D00020B1AFBAA0624C8F582A9
:101F300074003AF58322C39BFFEE9AFEED99FDEC07
:101F400098227B007A00795F9001EBE4F0A3741E85
:101F5000F0E4FF22900000E025E025E02403F58274
:101F6000E43400F583229001E3E0FEA3E07802224E
:101F7000C39001E7E0FF648022E49001E1F0A3F068
:101F8000A3F0A3F0227E007D007B01020B1A24C87F
:101F9000F58274003EF58322900176E0640470249B
:101FA0009000ECE06402701C9000F1E0701690006C
:101FB000EFE070109000EEE070769000F2E07002BA
:101FC000A3E06002806A9000F0E0FE540F9001C62A
:101FD000F0EE14602C247F60030470549001BDE087
:101FE000FF9001C6E0FDF87401088002C333D8FCFD
:101FF000F45F9001BDF07F0E1231087D407F1180AB
:10200000239001BEE0FF9001C6E0FDF87401088056
:1020100002C333D8FCF45F9001BEF07F0E1231088A
:102020007D807F14123108E4FD7F0E123108800399
:1020300002000E12320E229001BFE0FBA3E0FAA3D1
:10204000E0F922F07E007F0C7D007B007A0079535E
:1020500022E92402F9E43AFA120977EF2401FFE4B5
:102060003EFEE43DFDE43CFC22A3F0743B90021CE8
:10207000F0E490021BF090020CE02290021CF0743D
:102080000190021BF090020CE022900002120997CE
:10209000E47BE87A03F9F8D302092CE0F8A3E0F92D
:1020A000A3E0FAA3E0FBD302092C90021704F0A3EB
:1020B000229000010206B52401FFE433FE227B00DA
:1020C0007A00793622F0A37400F0A37453F02290C2
:1020D0000001020716900176E0640470249000EC81
:1020E000E06402701C9000F1E070169000EFE07068
:1020F0007A9000EEE070749000F2E07002A3E0606D
:102100000280689000F0E0FE540F9001C6F0EE14DB
:10211000602B247F60030470529001BDE0FF9001AA
:10212000C6E0FDF87401088002C333D8FC4F90016B
:10213000BDF07F0E1231087D107F1180229001BE0C
:10214000E0FF9001C6E0FDF87401088002C333D8B7
:10215000FC4F9001BEF07F0E1231087D207F1412DB
:102160003108E4FD7F0E123108800302000E1232A6
:102170000E22900176E0640260229000ECE0701C78
:102180009000EFE070169000F1E070109000F0E029
:10219000700A9000F2E07002A3E0600302000E906B
:1021A00000EEE0640190017670547404F0E4900154
:1021B000BDF09001BEF07D017F0E1231087D207FC1
:1021C000121231087D087F101231087D027F0E1235
:1021D00031087D207F121231087D087F10123108EE
:1021E0007D017F0E123108E4FD7F121231087D0857
:1021F0007F13123108E4FD7F0E123108800D740345
:10220000F09001BD74FFF09001BEF012320E2290EA
:1022100001BFEBF0A3EAF0A3E9F012203712208A05
:10222000500E1220371220B170061220510209C739
:1022300012203712069CFF123025EF704F12203704
:102240001220B170081220511209C78019122037CC
:102250001220B1B40110900002120A7700000000B1
:10226000E41220CF801E1220371220B170331220CA
:102270008A502E12203774021220CF1220511209D8
:10228000C7122037900006740102071612203790FB
:1022900000017401120716900002120A7700000074
:1022A00000229001CD7401F07F0C7A0179CF121FCA
:1022B00085E49001CEF012323B9001CDE0F9F812A6
:1022C0000964E47B0AFAF9F812088CAF039001DB89
:1022D000EFF09001CEE07C007B0124CFF9EC3401DB
:1022E000FA9001DF74FFF0A37433F0A37449F0A3F4
:1022F000EFF0120C297F011223299001CEE004F0A7
:10230000E0C3940A40B07B017A0179CFE49001E008
:10231000F0FD1216527F0A1223299001CDE004F03D
:10232000E0D3940A40820200C27E007D007C00124D
:102330003042229001E8120A3A9001F4121EF9FB91
:10234000A3121EE7121F36A3121EF2FBA3121EE7F2
:10235000121F36900200121EF2FB9001E8121EE7D7
:10236000121F36FC900204120A3AE47B02FAF9F8D2
:10237000900200121EE7FF122B5AC004C005C006CF
:10238000C0079001FC121EE7FF900204121EF9FB29
:10239000120801D003D002D001D000EF2BFFEE3A9B
:1023A000FEED39FDEC38FC900200121EF9FB122BF9
:1023B0005A9001F4121EF92FFFEA3EFEE93DFDE8B6
:1023C0003CFC22787FE4F6D8FD75817C02240A0269
:1023D0001047E493A3F8E493A34003F68001F208C6
:1023E000DFF48029E493A3F85407240CC8C333C452
:1023F000540F4420C8834004F456800146F6DFE4BD
:10240000800B0102040810204080901366E47E01D6
:102410009360BCA3FF543F30E509541FFEE493A32F
:1024200060010ECF54C025E060A840B8E493A3FA41
:10243000E493A3F8E493A3C8C582C8CAC583CAF0CD
:10244000A3C8C582C8CAC583CADFE9DEE780BE90DB
:1024500001E7EFF0A3EBF0A3EAF0A3E9F0E49001C9
:10246000EDF0A3F0D2817F0AFEFDFC12315C123246
:102470002612315C9001E7E044C0FF1227CF1232F0
:102480002812315CE49001EDF0A3F09001EBE0FE46
:10249000A3E0FFA3E0FCA3E0FDC39FEC9E502690C9
:1024A00001E8E0FBA3E0FAA3E0F98D828C83120639
:1024B000B5FF1227CF9001EEE004F070CE9001ED51
:1024C000E004F080C612322812315CD281229001E1
:1024D000CDEFF012253AFF123146E4FF123146E407
:1024E000FF1231461232447F051227031230421286
:1024F000321A7F711231467F01122D819001CEEF89
:10250000F07F01122D819001CFEFF0E4FF122D81B9
:102510009001D0EFF01232441227011230421225FE
:102520003A44B0FF1231469001CFE0FF123146909D
:1025300001D0E0FF12314602324412321A7F70128B
:1025400031469001CDE0229001D4EFF078D97C01A2
:102550007D017BFF7A33794D7E007F031206767F03
:10256000037B017A0179D9121F229001D5121EE74F
:10257000FFEC4D4E4F602D9001D5A3A3A3E0781042
:1025800012093DA3EFF09001D5121EE7FF78081263
:10259000093D9001DAEFF09001D5121EE7FFE490BB
:1025A00001DBEFF09001D4E075F003A4FF7B017A2A
:1025B0000179D99001EBE4F0A37403F002244F12E7
:1025C0003096AE07EE30E20D54FBFD7F111231085C
:1025D000E49001B7F0EE30E4084480FD7F11123141
:1025E000089001B7E024FD6047146047240470465A
:1025F000EE30E0427B017A0079EC7F20122D0F90C3
:1026000000F2E0FEA3E0FF12307A9000F2EEF0A3B9
:10261000EFF09000ECE0546024E0600B24E0600AEE
:102620002440700902277302305E02324D02000E10
:10263000022637122A7F22123096EF20E16B90019A
:10264000B8E0FEA3E0FFD39440EE940040067D4046
:102650007F4080009001C7EFF09001BAE0FBA3E05B
:10266000FAA3E0F99001CCEFF07F20122E20900128
:10267000C7E0FF7E00C39001B9E09FF09001B8E091
:102680009EF09001BBEE8FF01207D59001B8E0707C
:1026900002A3E0700D7D0A7F11123108E49001B7AA
:1026A000F0227D027F1112310822E0FF9001D6E076
:1026B000F8A3E0F9A3E0FAA3E04FFFEAFEE9FDE8A2
:1026C000FC78081209649001D6020A3A9001D6E01B
:1026D000FCA3E0FDA3E0FEA3E0FF22FFE0F8A3E0FF
:1026E000F9A3E0FAA3E04FFFEAFEE9FDE8FC22E4EB
:1026F00012036CE4FBFA798078491202CFE4FBFA0A
:10270000227F0A7E007D007C00229001CDE0FBA3A9
:10271000E0FAA3E0F9229000ECE0648070249000DD
:10272000EFE0701E9000EEE070189000F1E0701283
:102730009000F0E0700C9000F2E07004A3E06401FF
:10274000600302000E900176E064049001BA700C00
:1027500074FFF0A37432F0A374D1800A74FFF0A365
:102760007432F0A374CFF09001B8E4F0A304F01237
:1027700031D3229000EDE0B40D00504F902783F844
:102780002828730227AA0227AD0227CB0227B0020E
:1027900027CB0227B30227B60227B90227BC02279C
:1027A000BF0227C20227C50227C8021A35021F9896
:1027B0000220D5022988021E1102000302271602F8
:1027C0002172022B9E022EAC02000612000E2290F5
:1027D00001EFEFF0E4A3F0A3F0C2829001F0F0A3C8
:1027E000F012322812315C9001EFE030E004D28325
:1027F0008002C28312322812315CD2821232281235
:10280000315CC2829001EFE0C313F09001F1E0046B
:10281000F070069001F0E004F0C39001F1E094083C
:102820009001F0E0940040B9221220BE1219071264
:102830002044120B1AE552701E900216E07F0070C1
:10284000027F01900216EFF09001D0E41220C51231
:1028500020BE122ACE801BE552B4011690021674D7
:1028600001F07B009001D0141220C57A0079361255
:102870002C9912204A900216E0FDE49001E0F0024B
:1028800016529001D7122D5A12321A7F6412314615
:102890009001D7E0FF12314612321A7F651231469D
:1028A000E49001DCF09001DBE0FFA3E0FEC39F5069
:1028B00027EF147F01B506027F00122D819001D809
:1028C000122D519001DCE0F582758300EF1207169E
:1028D0009001DCE004F080CD023244AC079001D3DB
:1028E000E0FF122D669001D2E0FF1231AD9001D5CC
:1028F000EFF09001D1E0FF1231AD9001D6EFF090F2
:1029000001D0E0FFF8E4088002C313D8FC44019032
:1029100001D7F0AF03122D66AF05122D66AF04127A
:102920002D667B017A0179D49001DF7407F0E4FF12
:10293000022B16C0E0C0F0C083C082C0D075D000AA
:10294000C000C001C002C003C004C005C006C0076B
:102950007B007A00793D12220F7B007A00794412C5
:10296000220F7B007A00794B12220FC28FD007D042
:1029700006D005D004D003D002D001D000D0D0D0F2
:1029800082D083D0F0D0E0329000ECE0702990004B
:10299000F1E070239000F0E0701D9000EFE0701700
:1029A0009000EEE0C3948074809480500A9000F20E
:1029B000E07002A3E0600302000E9000EEE09001E0
:1029C000C6F0FDE4FF1231089001C6E09001766088
:1029D000057403F080037402F012320E22E4FDFF4E
:1029E0001231087D087F011231087D3F7F071231C7
:1029F000087D3F7F091231087D077F0B123108E403
:102A0000FD7F011231089001767402F0E49001B765
:102A1000F09001BDF0A3F0900234120A4600C2010A
:102A200000E4900238F0A3F0A37408F043AF8022D2
:102A3000122044120B1AE5529001DFB4021074FF09
:102A4000F0A37432F0A374DCF090020E800E74FFD9
:102A5000F0A37432F0A374E3F0900212E0FCA3E060
:102A6000FDA3E0FEA3E0FF9001E2120A3A12204A21
:102A7000120C2912204AE49001E0F0FD02165212D5
:102A80003096EF30E0479001BAE0FBA3E0FAA3E014
:102A9000F97F20122D0FEFFDC39001B9E09DF0905A
:102AA00001B8E09400F09001BBE48FF01207D590DC
:102AB00001B8E07002A3E0700D7D487F111231086B
:102AC000E49001B7F0227D407F111231082290017D
:102AD000CD122D5D9001DF74FFF0A37433F0A37469
:102AE00013F09001CD122D51122D7B9001E2F09048
:102AF00000041206B59001E3F09000051206B590AF
:102B000001E4F09000061206B59001E5F09001D0C6
:102B1000122D51020C299001DB122D5A12321A7F0C
:102B2000641231469001DBE0FF123146E49001E08F
:102B3000F09001DFE0FFA3E0FEC39F501A9001DC9C
:102B4000122D518E827583001206B5FF1231469008
:102B500001E0E004F080DA023244C2D5E830E70F49
:102B6000B2D5E4C39BFBE49AFAE499F9E498F8EC53
:102B700030E717B2D5122B9012088CE4C39BFBE40C
:102B80009AFAE499F9E498F8800312088C30D50D8C
:102B9000E4C39FFFE49EFEE49DFDE49CFC229001C3
:102BA00076E06404701E9000ECE064817016900082
:102BB000EFE070109000F1E0700AA3E07004A3E071
:102BC0006401600302000E9001BA74FFF0A3743236
:102BD000F0A374CFF09001B8E4F0A304F01231D365
:102BE0002290FEB2E4F090FECCF090FEC97468F042
:102BF00090FECC7440F090FED0E4F0A3F0A304F07B
:102C0000A374F4F090FED7E4F0A3744BF090FEB1FF
:102C10007408F090FEDD7480F090FEC0E04481F016
:102C200022E4FDFF1231089001767402F0E4900175
:102C3000B7F00D7F0E1231087D487F111231087DEB
:102C4000027F0E1231087D487F11123108123104C3
:102C50007D907F14123108E4FD7F0E02310890014F
:102C6000CD120A3AAF10AE0FAD0EAC0D9001CD12E1
:102C7000209B501F9001CDE0F8A3A3A3C3E5109BB8
:102C8000FFE50F9AFEE50E99FDE50D98FCA31220D5
:102C90009B50037F01227F00229001CD122D5D9079
:102CA00001DF74FFF0A37433F0A37428F09001CD1A
:102CB000122D5112069C9001E2F0122D759001E345
:102CC000F09000021206B59001E4F09001D0122DB0
:102CD00051020C29E49001E7F090FE82E020E61911
:102CE0009001E7E0C394645010E004F07F017E009F
:102CF0007D007C0012304280E090FE82E054BFF004
:102D00009001E7E0C39464400590FE82E4F02290D5
:102D100001C7EBF0A3EAF0A3E9F0AE077F1612308B
:102D20009FAD07AC05AF051DEF601BAF0612309FCE
:102D30009001C7E0FBA3E475F0011207EBA9F0FADC
:102D4000EF12070480DFAF0422E0FF1231E39001AD
:102D5000CDE0FBA3E0FAA3E0F922EFF0A3EBF0A3B0
:102D6000EAF0A3E9F0221231ADA3EFF0227407904C
:102D700000030207169000010206B5900003020648
:102D8000B59001E5EFF0E4A3F090FE817404F01239
:102D90002CD490FE87E09001E6F09001E5E07F0101
:102DA00060027F0090FE82EFF090FE817405F012C9
:102DB0002CD49001E6E0FF22900176E064047008D4
:102DC0009000ECE06421600302000E9001BA7401EF
:102DD000F0A37402F0A37434F09000F2E0FFA3E0DB
:102DE0009001B8CFF0A3EFF012320122900176E00B
:102DF000640470089000ECE064A1600302000E908F
:102E000001BA7401F0A37402F0A37434F09000F2DC
:102E1000E0FFA3E09001B8CFF0A3EFF01231D3228E
:102E20009001C9EBF0A3EAF0A3E9F0AE079001CC62
:102E3000E0FF14F0EF601BAF069001C9E0FBA3E4D4
:102E400075F0011207EBA9F0FA12069CFD12310889
:102E500080DB22ED44809001CDF0EF6004E0440877
:102E6000F0D28112322812315C12322612315C907B
:102E700001CDE0FF1227CF12322812315CD281221D
:102E80009001CD7440F0EF6004E04404F0D2811270
:102E9000322812315C12322612315C9001CDE0FFF3
:102EA0001227CF12322812315CD28122900176E0B3
:102EB0006404701B9000ECE0B401149000EFE0702B
:102EC0000E9000F1E07008A3E07002A3E06003023E
:102ED000000E12320E22E4FEFDA805EF088002C3A8
:102EE00013D8FC5401FCC374079DFBF8EC08800266
:102EF000C333D8FC4EFE0DEDB408DEAF0622EFB4AE
:102F00000A07740D122F09740A309811A899B81382
:102F10000CC2983098FDA899C298B811F63099FD66
:102F2000C299F599229001CDEFF0D2811232281288
:102F3000315C12322612315C9001CDE0FF1227CFB6
:102F400012322812315CD2812253B20343B1039072
:102F5000FE077480F090FE07E030E0F9E4F5DC75E0
:102F6000F4901229DD43AF80D2AF22C0E0C0D0E59B
:102F7000102401F510E4350FF50FE4350EF50EE4DD
:102F8000350DF50DC28DD0D0D0E0327D01123098D4
:102F9000AE07EE30E5077D407F11123108EE30E2DA
:102FA00007E4FD7F11123108C20B221230B1EF5439
:102FB00018641860157F1B1224CE7F1C1224CE7F4C
:102FC0001E1224CE12270112304222EF1FAC0670CF
:102FD000011E4C6014000000000000000000000012
:102FE0000000000000000080E2227D02123098AE56
:102FF00007EE30E5077D407F11123108EE30E20721
:10300000E4FD7F111231082275940EE4F593759258
:1030100088759170F596F59590FE127470F090FE9B
:1030200011F0D2AF22EF7005A29633FF22EFB40168
:1030300004A2958006EFB40206A294E433FF227F37
:1030400000229001E8120A3A00750820750928D577
:1030500009FDD508FA9001E812323170EB22900098
:10306000EDE024DF600A14600A24027009022DB822
:10307000022DEC02312F12000E229001C6EEF0A3B9
:10308000EFF0E0A3F09001C6E09001C9F09001C814
:10309000E0FEA3E0FF22E4FD7F0E1231087F11E580
:1030A000FC20E7FBEF4480F5FCE5FC20E7FBAFEC00
:1030B0002212321A7F71123146E4FF122D819001E3
:1030C000E4EFF01232449001E4E0FF2212321A7F62
:1030D000701231467FAC1231467F33123146E4FF25
:1030E000123146023244D297122BE17F06122F256D
:1030F000E4FF122E807F077E0012319A0200C2A3E5
:10310000F053AF7F7D017F0EE5FC20E7FBEF547F9E
:10311000F5FCAF058FEC22AB07AA06EB1BAE0270E5
:10312000011A4E60097FE87E03122FCB80ED2290BA
:103130000176E0640470089000ECE0642160030212
:10314000000E12320E2290FE86EFF090FE81740A7D
:10315000F0122CD490FE82E05402FF229001F21271
:103160000A3A750806D508FD9001F212323170F264
:1031700022E4FFFE12069C600C0FEF70010E09E9BD
:1031800070F20A80EF22E5BA54CF4410F5BA90FEEF
:103190008074CDF090FE82E4F022900023E06F7006
:1031A00001EE6008EFF0FD7F01122E5322EF75F063
:1031B0000A84C454F0FEEF75F00A84E5F04EFF2255
:1031C000438E807589F3758A40758CA2C28DD28C2E
:1031D000D2A9229001B77403F07D407F111231080B
:1031E000022637EFC4540F75F00AA4FEEF540F2ED9
:1031F000FF221231011D7F14123108C20943AF8032
:10320000229001B77404F07D407F11023108E490F0
:1032100001B7F07D487F1102310890FE817401F002
:10322000122CD47F0122C2817F0A7E007D007C00A7
:103230002274FF120A07EC4D4E4F22AF10AE0FADB5
:103240000EAC0D2290FE817406F0022CD402000E0A
:103250001201000202000040BF3402FF000101021F
:10326000000109024300020100803209040000014C
:1032700002020100052400100105240100010424BC
:1032800002020524060001070582034000FF09042D
:103290000100020A00000007058102400000070546
:1032A00001024000000403090408035300540043D2
:1032B000001E0353005400430020005500530042F9
:1032C000002000530065007200690061006C00007E
:1032D0000001005374617274696E6700542D252ECD
:1032E000346600482D252E336625250020253032F2
:1032F000626420253032626420253032626400200E
:103300002000323025626425303262642D2530324F
:1033100062640057256264202530326264253032B1
:1033200062642530326264003230256264202530C8
:103330003262642530326264000000000000000048
:103340004053544349535023002562640000000059
:00000001FF
