:020000040800F2
:1000000018040020D50000089B0900089909000881
:1000100000000000000000000000000000000000E0
:100020000000000000000000000000009F09000820
:1000300000000000000000009D090008A109000860
:10004000000000000000000000000000E7000008C1
:10005000E7000008E7000008E7000008E7000008E4
:100060000000000000000000000000000000000090
:10007000E7000008E7000008E700000800000000B3
:1000800000000000E700000800000000E700000892
:10009000000000000000000000000000E700000871
:1000A00000000000E700000800000000E700000872
:1000B0000000000000000000000000000000000040
:1000C0000348854600F046F800480047F909000853
:1000D000180400200448804704480047FEE7FEE774
:1000E000FEE7FEE7FEE7FEE7A9090008C1000008F9
:1000F000D2B201E00270401C491EFBD270470022C0
:10010000F6E710B513460A4604461946FFF7F0FF16
:10011000204610BD70B50446002903D000202022DF
:10012000012310E0002801D00020C043C046C04693
:100130000DE02546D5408D4205D30D469540641B04
:100140001D46954040191546521E002DF1DC2146F2
:1001500070BD00001CB50948009009480190054693
:100160000126009C05E0E36807CC33430C3C98472C
:100170001034AC42F7D3FFF7A7FF0000B00B000824
:10018000D00B0008B0B5044600F0CCF80546601C62
:1001900002D081480068041900F0C4F8401BA04256
:1001A000FAD3B0BDF0B589B00B68002B00D1A6E042
:1001B0000E465449884201D0022200E00122052166
:1001C000090700278842009700D0009208970697F9
:1001D0003C46039610E029434B4A5160641C336847
:1001E0001946E1400837089A921C0892069A121D97
:1001F0000692002900D182E001252946A1400B404A
:10020000ECD0029107940497059372680346374631
:1002100010261643122E0ED11C20069A10400F26CF
:100220008640079AD408A4001C19226AB2433E698A
:10023000864016432662184603231A4608998A40C8
:10024000046894437F683E4601931E408E402643D7
:100250000660D643122F14D8BD402D4A154210D047
:1002600082683240039BDC68089B9C401443846096
:10027000FA06D20F079B9A40446802998C431443B4
:100280004460C1683140039EB268089B9A400A43AB
:10029000C260F900059D049F079C9FD518233B4031
:1002A0000F2199402246019CA243174CA218146EBC
:1002B0008C43009999402143116614490968736879
:1002C000DA0301D5294300E0A943079C0F4A1160D6
:1002D00051689A0301D5294300E0A9430B4A5160B4
:1002E00009490968DA0201D5294300E0A943064A11
:1002F000116051689A0200D56DE7A9436CE709B017
:10030000F0BDC046000400500018024080180240B2
:1003100006000600002A02D01822815070472822C9
:1003200081507047054800687047C0461A48006809
:1003300002490A68101808607047C0461000002083
:1003400080B5032000F008F8002801D0012080BD0E
:1003500000F024F8002080BDB0B505460E480168C5
:100360000124002916D07D20C000FFF7D3FE0146EE
:1003700097480068FFF7CEFE00F0F4FA032D09D885
:10038000002807D10024E0432946224600F01CF84B
:10039000904805602046B0BD0400002082B00948A6
:1003A0004168012211434160416811400191019966
:1003B000110702680A430260006808400090009834
:1003C00002B070473C100240002805D403220346C7
:1003D0009343094A9A1803E00C220240074BD218B3
:1003E0008007C00E8901C9B28140FF238340106895
:1003F000984308431060704700E400E014ED00E00B
:10040000F0B583B000284BD00D4602906A480068D2
:10041000012101910840A84214D2674908680126C9
:10042000B04328430860654CFFF77CFF07466248ED
:1004300000683040A84205D0FFF774FFC01BA042FF
:10044000F5D953E0029B186881075D4C0DD5410733
:1004500004D50721090322680A4322600F210902FB
:1004600022688A43996811432160C0071BD127463F
:100470005148006801263040A8423AD94E490868E0
:10048000B04308604D4CFFF74DFF05464A480068F1
:10049000C0072ED0FFF746FF401BA042F6D925E04B
:1004A000012003B0F0BD5B68002B62D0042B67D045
:1004B000012B67D12146083909684903019865D5A0
:1004C000216807229143194321603C4FFFF72AFF1F
:1004D000064620683821014002984068C0008142E9
:1004E000C5D0FFF71FFF801BB842F2D9032003B02D
:1004F000F0BD029A107840073C4606D5072000035D
:1005000021688143D0680843206020688006400F3E
:1005100006D020683821084008280FD1294839E042
:10052000204608380168201F0068C00A1C220240CB
:10053000264880588904490FC8402BE022680A40A9
:10054000F003202A26D022680A40182A0FD1211F42
:100550000B681D4A14681B0C63403C46DB0519D030
:10056000F84809685268090C5140014210D0002037
:1005700010E021460839096849050198A0D405E032
:10058000616D00E0A16D8907019899D403B0F0BDB9
:100590004B204002216889093C220A40ED498958D4
:1005A0001F220A40D040EC490860EC480068FFF781
:1005B000D3FE03B0F0BDC046002002408813000007
:1005C0000810024000366E014401FF1F900B000826
:1005D0000000002008000020F0B583B001250028AD
:1005E00000D135E104460068C107D54F14D0B96881
:1005F00038260E406168082E04D1002900D127E179
:10060000082609E001229204891A4B424B419904C1
:100610003B689343591839600295800716D42078B7
:10062000000735D42078400700D410E1B86838219D
:100630000140202900D08EE0F86D800700D406E14B
:10064000A0680028029D00D001E101E1BE683821C8
:100650000E4001943CD038682169002969D00721F7
:10066000C9028843616901433960B648FF38396877
:100670000143396001208402FFF754FE05463868C3
:1006800020427ED1FFF74EFE401B0228F7D960E0E2
:10069000B86838210840182837D1386E800703D54C
:1006A000E069002800D149E100917868CF49014014
:1006B000206A000408437860FFF734FE0546386E70
:1006C000800779D4FFF72EFE401B0228F7D940E0BF
:1006D00001253868400503D52069002800D1B7E01E
:1006E00000912246AC027868BF49014090690843F6
:1006F0007860FFF717FE06463868204249D1FFF7B9
:1007000011FE801B0228F7D923E0386EE169002929
:1007100061D0012108433866FFF704FE0646386EB3
:1007200080076BD4FFF7FEFD801B03250228F6D956
:100730008EE001210A02904338608C02FFF7F2FD3F
:1007400005463868204257D0FFF7ECFD401B0228D1
:10075000F7D903257CE0A568002D06D0032000040E
:1007600039698143E06808433861052D4ED0012D79
:1007700050D0F86D01218843F865F86D0421884355
:100780004BE0786898490140019CA0690843786073
:1007900045E70720C00239688143019C606908432E
:1007A0003860B8688006400F55D0B868009A10408D
:1007B00008285BD1644872E0182E00D0B7E0B86812
:1007C0008006400F7ED0B868009A1040082800D0FC
:1007D00083E05D48A0E0012188433866FFF7A2FD71
:1007E0000646386E800700D41CE7FFF79BFD801B90
:1007F00003250228F5D92BE0019C10E778687B4996
:100800000140206A0004084378600BE7F86D04217A
:100810000143F965F96D01200843F865504EFFF773
:1008200081FD0446002D0FD0F86D80070FD4FFF72F
:1008300079FD001B0325B042F6D909E0FFF772FDF0
:10084000001B0325B04203D8F86D8007F6D40025BD
:10085000284603B0F0BD39687868C00A1C220240FF
:100860003B4880588904490FC84018E0B9681140D6
:100870000120C003202912D0B968114018290DD1D8
:100880007A6832490B68120C5A40D20507D02D48BD
:100890007A684968120C4A40024238D00020B96890
:1008A00089093C220A402B4989581F220A40D0401E
:1008B0002949086029480068FFF74EFD0028C7D184
:1008C0000026ACE639687868C00A1C22024020483D
:1008D00080588904490FC8401EE0B96811400120C2
:1008E000C003202918D0B968114018290DD17A68A1
:1008F00016490B68120C5A40D2050DD011487A687F
:100900004968120C4A40024204D0002004E04B2007
:100910004002C4E74B204002B96889093C220A40E2
:100920000C4989581F220A40D0400B4908600B48E7
:100930000068FFF711FD002800D173E6029D87E7EC
:1009400000100240FF01000000366E014401FF1F4D
:10095000900B0008500B0008000000200800002049
:1009600088130000401E010E01D001207047074986
:10097000074A5060074803680B400321890759184C
:10098000016000209060072111607047FFFFFF00A9
:1009900010E000E020ED00E0FEE770477047704790
:1009A00080B5FFF7C3FC80BD81B00E4801680E4AD8
:1009B0000A402D490B681343036002680B4B134038
:1009C000496C0904194301600120C0060849086008
:1009D0000848009000BF0098411E00910028F9D1FE
:1009E00001B07047041002400000FFFFFFFF00FE4F
:1009F00008ED00E0E09304008EB0FFF7A1FC05AD28
:100A000024212846FFF77BFB00240A9401200602DC
:100A100009960F2005900C9406940794049403946F
:100A200002940194104800880B902846FFF7D4FDEB
:100A3000002800D0FEE7049403940294072001905C
:100A400001A82146FFF7DCFC002800D0FEE7322099
:100A5000FFF798FB00F00AF800F060F83046F43039
:100A6000FFF790FBFAE7C0460001FF1FF0B587B023
:100A70002748016801273943016001683940029124
:100A80000299026802210A43026002680A40029247
:100A9000029A0268042301931A4302600068184016
:100AA0000290029805910397049102911F4802ACAD
:100AB0002146FFF777FB174803900497002502951E
:100AC0000520060730462146FFF76CFB0397049587
:100AD000029711482146FFF765FB029530462146F3
:100AE000FFF760FB12200390049706200690029502
:100AF000094D28462146FFF755FB06480390049709
:100B00000198029028462146FFF74CFB07B0F0BD44
:100B100034100240000021100004005080B503484A
:100B200002210122FFF7F6FB80BDC04600080050FD
:100B300002E008C8121F08C1002AFAD170477047A6
:100B4000002001E001C1121F002AFBD17047000004
:100B50000000000000000000000000000000000095
:100B60000000000000000000000000000000000085
:100B7000010000000200000003000000040000006B
:100B80000600000007000000080000000900000047
:100B90000000000000000000000000000000000055
:100BA00000366E01000000000000000000000000A0
:100BB000D00B00080000002010000000300B0008DF
:100BC000E00B00081000002008040000400B0008A3
:100BD00000366E010100000004000000000000006B
:04000005080000C12E
:00000001FF
