:020000040800F2
:10000000D0060020D5000008191D0008151C0008A6
:1000100000000000000000000000000000000000E0
:10002000000000000000000000000000891E000821
:1000300000000000000000001B1D00088B1E0008CF
:10004000000000000000000000000000E7000008C1
:10005000E7000008E7000008E700000825020008A4
:100060000000000000000000000000000000000090
:10007000E7000008E7000008E700000800000000B3
:1000800000000000E700000800000000E700000892
:10009000000000000000000000000000E700000871
:1000A00000000000E700000800000000E700000872
:1000B0000000000000000000000000000000000040
:1000C0000348854600F086F80048004749240008A8
:1000D000D00600200448804704480047FEE7FEE7BA
:1000E000FEE7FEE7FEE7FEE7951E0008C1000008F8
:1000F00003460B439B0703D009E008C9121F08C041
:10010000042AFAD203E00B780370401C491C521EEB
:10011000F9D27047D2B201E00270401C491EFBD2F6
:1001200070470022F6E710B513460A460446194602
:10013000FFF7F0FF204610BD421C0178401C00294B
:10014000FBD1801A704770B50446002903D0002007
:100150002022012310E0002801D00020C043C04627
:10016000C0460DE02546D5408D4205D30D4695404D
:10017000641B1D46954040191546521E002DF1DCAA
:10018000214670BD70B5002504462E46002911D0C9
:10019000002C01DA01254442002901DA01264942F6
:1001A0002046FFF7D0FFB54200D04042002D00D0DE
:1001B000494270BD002C02DA0121C90702E0002C7F
:1001C00000DD03490846C046C046214670BD000018
:1001D000FFFFFF7F1CB509480090094801900546C4
:1001E0000126009C05E0E36807CC33430C3C9847AC
:1001F0001034AC42F7D3FFF767FF0000A0380008C7
:10020000C038000802F07CFE054C7D20C00000F0E4
:1002100015F8002120460A4602F0E8FEF5E7C04640
:100220007C38000880B5802000F0E0F8402000F025
:10023000DDF8202000F0DAF880BD0000B0B50446FB
:1002400000F0A6F90546601C02D0044800680419B5
:1002500000F09EF9401BA042FAD3B0BD1000002070
:10026000F0B581B0202833D0402860D0802800D05D
:10027000A5E000F08DF90546052000078024214601
:1002800000F078F9411E02468A4155490B78134324
:10029000DB070122002B00D10A70431E07469F4155
:1002A0000E78002E00D117464E4B002F174600D176
:1002B0001F78FF0770D0421E90410640012E7ED16C
:1002C000187800287BD000200870187046485CE041
:1002D00000F05EF90546052000072024214600F0C5
:1002E00049F9411E02468A4136490B781343DB0720
:1002F0000122002B00D10A70431E07469F410E7851
:10030000002E00D11746304B002F174600D11F7822
:10031000FF0744D0421E90410640012E4FD118786D
:1003200000284CD000200870187028482DE000F0FC
:100330002FF90546052000074024214600F01AF950
:10034000411E02468A4123490B781343DB070122F1
:10035000002B00D10A70431E07469F410E78002EE5
:1003600000D117461C4B002F174600D11F78FF07FE
:1003700018D0421E90410640012E20D11878002846
:100380001DD000200870187014480068291AC90888
:100390007C290CD902200DE01A70134804E01A7071
:1003A0000A4801E01A700D48056001B0F0BD8542B1
:1003B00005D00120064901224A7288700C8001B0E4
:1003C000F0BDC046FE000020EC000020E800002048
:1003D00008010020F6000020FC000020F8000020AA
:1003E000E4000020F4000020F000002080B5044963
:1003F0000A68024202D00860FFF732FF80BDC046A3
:100400000C180240F0B589B00B68002B00D1A6E0B3
:100410000E465449884201D0022200E00122052103
:10042000090700278842009700D000920897069796
:100430003C46039610E029434B4A5160641C3368E4
:100440001946E1400837089A921C0892069A121D34
:100450000692002900D182E001252946A1400B40E7
:10046000ECD00291079404970593726803463746CF
:1004700010261643122E0ED11C20069A10400F266D
:100480008640079AD408A4001C19226AB2433E6928
:10049000864016432662184603231A4608998A4066
:1004A000046894437F683E4601931E408E40264375
:1004B0000660D643122F14D8BD402D4A154210D0E5
:1004C00082683240039BDC68089B9C401443846034
:1004D000FA06D20F079B9A40446802998C43144352
:1004E0004460C1683140039EB268089B9A400A4349
:1004F000C260F900059D049F079C9FD518233B40CF
:100500000F2199402246019CA243174CA218146E59
:100510008C43009999402143116614490968736816
:10052000DA0301D5294300E0A943079C0F4A116073
:1005300051689A0301D5294300E0A9430B4A516051
:1005400009490968DA0201D5294300E0A943064AAE
:10055000116051689A0200D56DE7A9436CE709B0B4
:10056000F0BDC04600040050001802408018024050
:100570000600060000690840411E88417047002AB5
:1005800002D0182281507047282281507047000005
:10059000014800687047C04630020020F0B583B0C3
:1005A00000281BD00446074628377878002804D155
:1005B00000203870204600F037FD24207870206835
:1005C00001680126B143016000F08EFE6568444970
:1005D0008D4205D34449884205D27DE001267BE067
:1005E0004049884278D3029740490190FFF7ABFD1C
:1005F00006463F20C1432768786800910840304391
:1006000078604B20800070437D21C900FFF79BFD7F
:1006100033498D4200D30646701C396A009A114056
:1006200001433962F869324E0640334885420BD89F
:100630000198401E6900FFF786FD401C2D490840C7
:1006400004282ED804202CE0A068009000280198EF
:1006500001D0192100E003216943401E0190FFF7FA
:1006600072FD401C234908420ED0009800280DD08E
:10067000192169430198FFF766FD401C1D49084098
:1006800001218903401809E001200AE003216943A0
:100690000198FFF758FD401C164908400121C90385
:1006A00040183043F8613868C0218843216901430C
:1006B000606908433860B868FE218843E1680143F7
:1006C000B96038680121014339600026E6622020C4
:1006D0000299487066628E70304603B0F0BDC04625
:1006E000A186010080841E0000093D0040420F00E9
:1006F0000030FFFFFF0F0000A0860100F0B58BB0B7
:10070000059317460E46054604462834FFF740FF7A
:1007100009906078202800D0BBE0029704960794E7
:10072000129F1198089010980390286886690224F7
:10073000264012D0FFF72CFF0999401A1A28F4D34B
:10074000002068622021079A517090701070E86A4A
:100750000843E862002E00D09CE0079B187801282F
:1007600000D197E001241C7028680168C90703D1F3
:10077000016801220A430260E10202688A430260C2
:100780002221597040210691997000210191E9625E
:100790000899E983E98BEC4A2A62A302026808936C
:1007A0001A4302602302026800931A430260039A0C
:1007B000AA61A983406920404642464100281ED0D4
:1007C000FE2004990140286804910161416989076C
:1007D000079E46D501980A90286841690A91816967
:1007E0000A910A994169090657D4143023E0286810
:1007F0004069012101404E424E410029E0D1781C60
:10080000F5D0FFF7C5FE002F03D00999401AB84272
:10081000EDD9002068622021079A51709070107005
:10082000E86A0843E862F007CAD033E02868416903
:100830001430090631D40168089A114200D0D0E082
:10084000781CF3D0FFF7A4FE2021002F00D1CBE0CD
:10085000099A801AB842E9D9C6E02868416989072F
:10086000B8D44169089A11423AD1781CF5D0FFF703
:100870008FFE002F03D00999401AB842EDD900200D
:10088000686220217170B0703070E86A0843E862D5
:1008900000E0022420460BB0F0BD2868059901292C
:1008A00031D00299090A0161416909062AD414303C
:1008B00004E0286841691430090623D40168089AC5
:1008C000114200D0A4E0781CF3D0FFF761FE202194
:1008D000002F00D19FE0099A801AB842E9D99AE026
:1008E0000124610202680A430260A94941610020B3
:1008F000686220217170B0703070E86A0421014391
:10090000E962C7E728680299C9B2016128684169AC
:10091000090616D4143004E0286841691430090629
:100920000FD40168089A11425BD1781CF4D0FFF70C
:100930002FFE2021002F57D0099A801AB842EBD9F8
:1009400052E028680168009A11430160406901245F
:1009500020404642464100282CD004992143286873
:100960000161E94928463A46099B01F089F90028C6
:10097000079B8FD1A88B012461020591022854D0D6
:10098000012867D0002800D078E001980A902868F4
:1009900041690A9181690A910A990168059A11438E
:1009A000016077E028684069012101404E424E41D4
:1009B0000029D2D1781CF5D0FFF7EAFD002F03D033
:1009C0000999401AB842EDD9002068622021079A9F
:1009D000517090701070E86A0843E862F007BCD06C
:1009E00058E7C84901600421002068622022727023
:1009F000B070EA6A0A43EA623070E86A042800D0FC
:100A000048E70124600229680A6802430A6041E756
:100A1000BC4901600421019A6A6220207070B270A2
:100A2000E86A0843E8623270E7E70120C0022968FB
:100A30000A6802430A6072B600200A902868416979
:100A40000A9181690A910A990168AE4A11400160D0
:100A500062B61FE028680168AA4A1140016072B6B8
:100A600001980A90286841690A9181690A910A9956
:100A70000168059A1143016062B60BE028680168BD
:100A8000089A1143016001990A9141690A918069AC
:100A90000A900A98A88B002800D12DE11021C943A3
:100AA000049130E0019A6A622020079948708A70A8
:100AB0000A70E96A0143E962F00700D0EAE62868B3
:100AC0000168059A11430160A96900690870A86965
:100AD000401CA861A88B401EA883E88B401EE883B9
:100AE00062B6A869296809690170079BA869401C5A
:100AF000A861A88B401EA883E88B401EE883A88BC2
:100B0000002800D1F8E0042820D202283AD0012899
:100B100073D12868466906990E40E2D14169C90639
:100B200000D5DAE0FFF734FD002F03D00999401A11
:100B3000B842EED9019B6B622021079A51709370E5
:100B4000E86A08431946D1E00000FFFF28684669BB
:100B500006990E4000D0AAE04169C90600D598E088
:100B6000FFF716FD002F03D00999401AB842EDD9BE
:100B7000019B6B622021079A51709370E86A0843C9
:100B800019468FE0286840690421089105E0C046B5
:100B9000FFFBFFFF2868406908990840464246412C
:100BA000002816D1781CF5D0FFF7F2FC002F03D0F7
:100BB0000999401AB842EDD9019A6A622020079932
:100BC00048708A700A70E96A0143E962F00700D050
:100BD00060E672B628680168059A11430160A96948
:100BE00000690870A869401CA861A88B401EA883F2
:100BF000E88B401EE88362B673E7286840690421E9
:100C0000089102E028684069089908404642464138
:100C1000002816D1781CF5D0FFF7BAFC002F03D0BE
:100C20000999401AB842EDD9019A6A6220200799C1
:100C300048708A700A70E96A0143E962F00700D0DF
:100C400028E628680168F74A1140016072B6A86971
:100C5000296809690170E88B401EE883A869401C77
:100C6000A861A88B401EA88328684069089908409D
:100C700046424641002800D021E7781CF4D0FFF717
:100C800087FC002F00D10DE70999401AB842EBD933
:100C900008E704994161019969622020079A507020
:100CA0009170E86A1170E862002E00D1F2E5A8693F
:100CB000296809690170E88B401EE883A869401C17
:100CC000A861A98B491EA98329684A695207079B15
:100CD00000D414E70969017008E70499416101999A
:100CE00069622020079A50709170E86A1170E8627A
:100CF000002E00D0F5E6CDE520205870019C1C7038
:100D00009C70C7E5FFFBFFFF02000100F0B589B052
:100D1000049317460691054604462834FFF738FC2D
:100D200006466078202800D0ACE001970594109822
:100D300007900F9802900E98039028688769022404
:100D4000274011D0FFF724FC801B1A28F5D3002080
:100D500068622021059A517090701070E86A08430B
:100D6000E862002F00D08EE0059B1878012800D1A2
:100D700089E001241C7028680168C90703D1016853
:100D800001220A430260E10202688A4302602121D3
:100D900059704021997000210091E9620299E9831C
:100DA000E98B9F4A2A622202036813430360039A75
:100DB000AA61A98340692040474247410028079B18
:100DC0001FD0FE200699014028680161A10206910A
:100DD00041698907059F46D50098089028684169B0
:100DE0000891816908910899416909064ED4143027
:100DF00023E028684069012101404F424F4100290A
:100E0000DFD1581CF5D0FFF7C3FB079B002B02D0A6
:100E1000801B9842EDD9002068622021059A51700C
:100E200090701070E86A0843E862F807C9D02AE0B9
:100E3000286841691430090628D40168069A1142CD
:100E400000D0C8E0581CF3D0FFF7A2FB079B20217D
:100E5000002B00D1C2E0801B9842E9D9BEE028688F
:100E600041698907B8D44169069A114251D1581C89
:100E7000F5D0FFF78DFB079B002B40D0801B9842DD
:100E8000EDD93CE00224204609B0F0BD2868049961
:100E900001291FD00199090A01614169090618D485
:100EA000143004E0286841691430090611D401683F
:100EB000069A114200D09BE0581CF3D0FFF768FB64
:100EC000079B2021002B00D195E0801B9842E9D997
:100ED00091E028680199C9B2016128684169090651
:100EE00029D44169069A114213D1581CF5D0FFF755
:100EF0004FFB079B002B02D0801B9842EDD90020AE
:100F0000686220217970B8703870E86A0843E86236
:100F1000B9E70124610202680A4302604149416164
:100F20000020686220217970B8703870E86A042166
:100F30000143E962A7E7A88B002839D028684169F6
:100F4000090616D4143004E02868416914300906F3
:100F50000FD40168069A11424AD1581CF4D0FFF709
:100F600017FB079B2021002B45D0801B9842EBD913
:100F700041E02968A86902780A61EA8B521EEA8377
:100F8000421CAA61AA8B531EAB834F697F070AD507
:100F90001B0408D043780B61911EA983801CA861B3
:100FA000E88B401EE883A88B0028059F079BC5D1CE
:100FB00028461946324600F02FFE002824D1012091
:100FC000400229680A6802430A6020207870009C69
:100FD0003C70BC7057E7134901600421002068622F
:100FE00020227A70B870EA6A0A43EA6238700BE02D
:100FF0000C4901600421009A6A6220207870BA705E
:10100000E86A0843E8623A70E86A042800D03AE7E0
:101010000124600229680A6802430A6033E7C04677
:101020000000FFFFFFFBFFFF704700001A48006849
:1010300002490A68101808607047C0463002002054
:1010400080B5032000F008F8002801D0012080BD01
:1010500000F024F8002080BDB0B505460E480168B8
:101060000124002916D07D20C000FFF76CF801464E
:10107000A4480068FFF767F800F026FC032D09D8A4
:10108000002807D10024E0432946224600F026F834
:10109000944805602046B0BD1000002082B0094889
:1010A0004168012211434160416811400191019959
:1010B000110702680A430260006808400090009827
:1010C00002B070473C1002401F21014001208840BF
:1010D000014908607047C04600E100E0002805D4DF
:1010E000032203469343094A9A1803E00C22024064
:1010F000074BD2188007C00E8901C9B28140FF2377
:1011000083401068984308431060704700E400E093
:1011100014ED00E0F0B583B000284BD00D460290EE
:101120006A480068012101910840A84214D2674929
:1011300008680126B04328430860654CFFF728FA89
:101140000746624800683040A84205D0FFF720FA01
:10115000C01BA042F5D953E0029B186881076A4C76
:101160000DD5410704D50721090322680A432260EF
:101170000F21090222688A43996811432160C00740
:101180001BD127465148006801263040A8423AD971
:101190004E490868B04308604D4CFFF7F9F9054621
:1011A0004A480068C0072ED0FFF7F2F9401BA04262
:1011B000F6D925E0012003B0F0BD5B68002B62D0BA
:1011C000042B67D0012B67D12146083909684903F0
:1011D000019865D5216807229143194321603C4F4E
:1011E000FFF7D6F90646206838210140029840688A
:1011F000C0008142C5D0FFF7CBF9801BB842F2D9BD
:10120000032003B0F0BD029A107840073C4606D593
:101210000720000321688143D068084320602068CC
:101220008006400F06D020683821084008280FD1DA
:10123000284839E0204608380168201F0068C00AA5
:101240001C220240264880588904490FC8402BE0E0
:1012500022680A40F003202A26D022680A40182A71
:101260000FD1211F0B681C4A14681B0C63403C46BD
:10127000DB0519D0194809685268090C5140014230
:1012800010D0002010E0214608390968490501986E
:10129000A0D405E0616D00E0A16D8907019899D4A3
:1012A00003B0F0BD4B204002216889093C220A406E
:1012B000F74989581F220A40D040F6490860F6488D
:1012C0000068FFF7C9FE03B0F0BDC0460020024031
:1012D0008813000000366E014401FF1FFF0100006B
:1012E0009037000814000020EA48006806490968A1
:1012F000890A1C220A40054989581F220A40D04009
:101300007047C046000000200810024070370008F7
:10131000F0B583B00125002800D135E1044600680E
:10132000C107D54F14D0B96838260E406168082E21
:1013300004D1002900D127E1082609E00122920406
:10134000891A4B424B4199043B68934359183960C1
:101350000295800716D42078000735D420784007FE
:1013600000D410E1B86838210140202900D08EE077
:10137000F86D800700D406E1A0680028029D00D027
:1013800001E101E1BE6838210E4001943CD038688B
:101390002169002969D00721C90288436169014395
:1013A0003960B648FF38396801433960012084024A
:1013B000FFF7EEF80546386820427ED1FFF7E8F8DF
:1013C000401B0228F7D960E0B86838210840182887
:1013D00037D1386E800703D5E069002800D149E194
:1013E00000917868AD490140206A000408437860A4
:1013F000FFF7CEF80546386E800779D4FFF7C8F8B6
:10140000401B0228F7D940E001253868400503D584
:101410002069002800D1B7E000912246AC0278682C
:1014200097490140906908437860FFF7B1F8064694
:101430003868204249D1FFF7ABF8801B0228F7D962
:1014400023E0386EE169002961D001210843386644
:10145000FFF79EF80646386E80076BD4FFF798F8C2
:10146000801B03250228F6D98EE001210A02904351
:1014700038608C02FFF78CF805463868204257D058
:10148000FFF786F8401B0228F7D903257CE0A56802
:10149000002D06D00320000439698143E068084329
:1014A0003861052D4ED0012D50D0F86D01218843B3
:1014B000F865F86D042188434BE078687049014075
:1014C000019CA0690843786045E70720C00239689D
:1014D0008143019C606908433860B8688006400F0A
:1014E00055D0B868009A104008285BD1654872E072
:1014F000182E00D0B7E0B8688006400F7ED0B868DC
:10150000009A1040082800D083E05E48A0E0012146
:1015100088433866FFF73CF80646386E800700D4EB
:101520001CE7FFF735F8801B03250228F5D92BE0CF
:10153000019C10E7786859490140206A000408437B
:1015400078600BE7F86D04210143F965F96D01201E
:101550000843F865524EFFF71BF80446002D0FD0E4
:10156000F86D80070FD4FFF713F8001B0325B04276
:10157000F6D909E0FFF70CF8001B0325B04203D8A9
:10158000F86D8007F6D40025284603B0F0BD396811
:101590007868C00A1C2202403C4880588904490FE0
:1015A000C84018E0B96811400120C003202912D0BA
:1015B000B968114018290DD17A6833490B68120CAB
:1015C0005A40D20507D02D487A684968120C4A4023
:1015D000024238D00020B96889093C220A402C49CF
:1015E00089581F220A40D0402A4908602A480068CA
:1015F000FFF732FD0028C7D10026ACE639687868CD
:10160000C00A1C220240214880588904490FC84062
:101610001EE0B96811400120C003202918D0B96824
:10162000114018290DD17A6817490B68120C5A40DD
:10163000D2050DD011487A684968120C4A4002421E
:1016400004D0002004E04B204002C4E74B204002BD
:10165000B96889093C220A400D4989581F220A406D
:10166000D0400C4908600C480068FFF7F5FC0028E2
:1016700000D173E6029D87E700100240FF010000E1
:101680000000FFFF00366E014401FF1F9037000885
:10169000303700080000002014000020FFFF00FE8B
:1016A00088130000F0B581B0002840D004460546FC
:1016B0003C35412086006068B04201D00020E061E6
:1016C0006878002804D100202870204600F032F805
:1016D000022169702068026840239A4302606268B0
:1016E000324021239B02A7681F40BA1823690B4090
:1016F0001343676901210F401F43FC36A26916405E
:101700003E43E36938271F403743CB02E6681E405B
:101710003E43236A80271F4037430760120C04238F
:101720001340436000202064697001B0F0BD0120C7
:1017300001B0F0BD70470000F0B587B005930446D6
:101740003C20205C012801D10226B8E01546049116
:1017500026463C3601273770FEF71AFF334671786C
:10176000012942D10390049A002A3E4600D1A3E009
:10177000002D3E4600D19FE0029703265E700020B8
:1017800020646585258562622086E0626063A063CF
:101790000090608601200746C003A168814208D1FD
:1017A00020680168402291430160B90302680A433E
:1017B0000260019320680168490603D40168402251
:1017C0000A43026061684A424A416B1E59425941CC
:1017D0001143E2683B4B9A4209D30029059D049AC4
:1017E0000ED01188C160901C06E0022664E000293A
:1017F000059D049921D018E06062608D401E6085CF
:10180000608D00282BD020688168890708D4FEF7F6
:10181000BFFE691CF4D00399401AA842F0D349E0F6
:10182000616A0A88C260881CE6E709780173606A09
:10183000401C6062608D401E6085608D00280ED067
:1018400020688168890708D4FEF7A2FE691CF4D0DD
:101850000399401AA842F0D32CE0616AE5E7F90247
:1018600020462A46039E334600F058FA00280ED13F
:1018700020462946324600F0B5FA002807D1790201
:1018800020462A46334600F049FA002804D0206C4E
:101890002021084320642164A068002807D1009813
:1018A00006902068C1680691806806900698266CAC
:1018B000701E8641029F019B002018705F703046A9
:1018C00007B0F0BD01070000401E010E01D001204D
:1018D00070470749074A5060074803680B400321D7
:1018E0008907591801600020906007211160704736
:1018F000FFFFFF0010E000E020ED00E010B5002841
:1019000013D00446807F002804D100206077204651
:1019100000F032F80220A07720680368BB498842B3
:1019200005D01A46884208D10AE0012010BD702275
:101930009343A2681A43884202D0B54B984205D11E
:1019400003231B029A432369134300E013468022BA
:101950009343A2691A430260E268C26262688262CB
:10196000884202D0AA49884201D1616901630121FC
:101970004161A177002010BD70470000F0B583B031
:10198000437F012B01D102211CE102258577012330
:101990004377EA41032A00D911E1C0467A4412791B
:1019A00052009744011F354C0468226A9A43226210
:1019B000226AAA438F681743626801920A680292FA
:1019C000A669924A944203D0914DAC4200D082E085
:1019D0000C25AF43CD68042295438C4A3D43944285
:1019E0007CD17EE00468226A1025AA432262226A22
:1019F0002025AA438D682F01174362680D68029560
:101A0000A569824EB44232D00197B4423CD13EE047
:101A10001A020468256A954325625A02256A95438D
:101A20008A6817022F43626801920A680292E66987
:101A3000764A944234D03D4694423DD13FE01A0369
:101A40000468256A95432562256A62688E68029655
:101A50000E680196E7696D4EB44202D06C4EB442F6
:101A60004AD19E03B2434E69B601164345E0C026F3
:101A7000B743CE68009535014026B543634E3D43DC
:101A80000195009DB44202D0614EB44250D103266C
:101A9000B602B2434E698F693743BF00174348E02F
:101AA0000325AD02AF439B4AFF3ACD682D02154096
:101AB000564A3D43944202D0554A944252D10322A1
:101AC00012030095019D95434A698F6917433F01B1
:101AD0002F43009D47E03D46944202D04C4A944239
:101AE00055D1032212020093019B93434F698A69E7
:101AF0001F43009B17434BE0164622461C3266608C
:101B000073263602B743019E36023E43E6614E68B5
:101B100026645E03B543029E36032E432662DD0231
:101B2000E6692E43E6619D02E669AE43E66116E092
:101B3000174622461832676073263602B543029E66
:101B400036022E43A6614D68A563019D2562DD0224
:101B5000A6692E43A6619D02A669AE43A6610969E6
:101B6000090229E0019F22461C3267607327BE43A9
:101B7000029F3E43E6614E68E6632562E5690826FA
:101B80002E43E661E5690426B543E56113E0019F54
:101B90002246183267607327BE43029F3E43A66108
:101BA0004E6866632562A56908262E43A661A5696D
:101BB0000426B543A561096914680C43146000212B
:101BC00041778377084603B0F0BDC0461F220A4024
:101BD00001210B4693400068026A9A430262026A3E
:101BE0001A430262094A904202D0094A904203D144
:101BF000CA03436C13434364826807231340062BD4
:101C000002D002680A43026000207047002C0140A5
:101C100000200040FEE70000F0B581B016460F46F8
:101C20000446026851690020490718D400902546EF
:101C30002835143204E022685169143249070DD462
:101C4000116849050DD4781CF5D0FEF7A1FC2021C0
:101C5000002F09D0801BB842EDD905E0009801B0F3
:101C6000F0BD2C49116004210020606220226A70BE
:101C7000A8702870E06A0843E062012001B0F0BD5E
:101C8000F0B583B004468DB2006841692940002652
:101C9000A94202D1304603B0F0BD01210091416953
:101CA00049051FD40098800202900194501C10D066
:101CB0002F46344615461E46FEF76AFC2021002DAD
:101CC00026D03346801BA8422646019C2A463D4624
:101CD00010D8206841692940A942DBD04169029FA0
:101CE0003942E3D00121490202680A4302600949EE
:101CF0004161042120462830002262622023437083
:101D000082700270E06A0843E062009803B0F0BDA0
:101D1000019CEFE7FFFBFFFF70477047F0B589B00C
:101D20001D4616460F46044607A800210391017080
:101D3000FEF72EFC281A06968519FEF729FC059059
:101D40005048006823214143080D684308902068EB
:101D500004908068384224D0264620463C300290C9
:101D6000412084000194FC3403E0306880683842EC
:101D700017D0A74204D10498007B07A908700798E0
:101D80000698401CF1D0FEF703FC0599401AA842C2
:101D90000AD208980899491E08910028E5D10546FD
:101DA000E3E7039809B0F0BD30684168E022914351
:101DB00041607168019A91420BD1B1680122D3034D
:101DC000994202D09202914203D10168402291438C
:101DD000016000200299087001204870032009B0BA
:101DE000F0BDC046F0B583B016460D460446FEF77A
:101DF000CFFB301A4719FEF7CBFB06462148006897
:101E00004001000D78430290206880680021019114
:101E1000000602D4019803B0F0BD20463C3000908B
:101E200003E0206880680006F4D5681CF9D0FEF74E
:101E3000AFFB801BB84207D202980299491E02915B
:101E40000028EED10746ECE720684168E022914384
:101E500041604121890062688A420BD1A168012258
:101E6000D303994202D09202914203D101684022E9
:101E70009143016000200099087001204870032000
:101E800003B0F0BD00000020704780B5FFF7CEF82A
:101E900080BD000081B00E4801680E4A0A400E491C
:101EA0000B681343036002680C4B1340496C090430
:101EB000194301600120C0060949086009480090E3
:101EC00000BF0098411E00910028F9D101B0704771
:101ED000041002400000FFFF0001FF1FFFFF00FE93
:101EE00008ED00E0E093040070B584B08178022929
:101EF00023D0012966D10188802911D133490B787B
:101F000033490A78334909680D782C46FF349D42DD
:101F1000234600D81346E5B2A54200D113460B7004
:101F20000188402923D12A490B782A4909680A786F
:101F30009A421AD3254A127818E00088202841D105
:101F4000A34C204600F026FD1F4B8D48006800780A
:101F5000042819D0032823D120781870D81CE11C3C
:101F60009A1CA51C5E1C641C14E0521C0A7000889C
:101F7000202827D118480178491CCAB2032A00D961
:101F80000121017004B070BD981DA11D5A1D651D71
:101F90001E1D241D247834702C781470097801706B
:101FA0009A7859781878DC781D795E799B79009554
:101FB00001960293631EDBB200F09CFC022000211C
:101FC00000F078FB04B070BDDC0100208D01002022
:101FD0008C010020D80100200C00002010B5044620
:101FE0008078022825D001282AD1208880280ED187
:101FF00014480178002901D0491E00E00321124A4B
:1020000011700170C8B2032801D100F07FFB208855
:1020100040280ED10B480178491CCAB2032A00D9C6
:102020000021094A11700170C8B2032801D100F0E3
:102030006DFB2088202803D10220002100F03AFB0C
:1020400010BDC04680010020B701002080B5817816
:10205000022913D0012918D10088202811D0402846
:1020600014D0802811D10E4801783331CAB29208B9
:10207000322A01D90021C943017080BD008820287F
:1020800003D10220002100F015FB80BD0448017837
:102090003339C9B2012900D80121017080BDC04681
:1020A0000B00002080B5817802290FD001291DD1B5
:1020B0000088202810D0402819D0802816D1124836
:1020C000017800291CD0491E017080BD008820289D
:1020D0000CD10020014607E00B4800780A2141435B
:1020E0000A484018007A002100F0E4FA80BD064852
:1020F0000178491CCAB2032A00D90021017080BDB1
:102100000321017080BDC0468101002054380008C1
:1021100010B50446807802280DD0012812D12088FD
:10212000802814D116480068007801280BD00028B8
:102130000DD1012008E02088202803D102200021B1
:1021400000F0B8FA10BD0020002100F0B3FA20889A
:1021500040280CD10B480178491CCAB2022A00D988
:1021600000210170C8B208A1085C00F031FF20888E
:102170002028E7D1054801784A424A41027010BD43
:102180001401002082010020010307000400002048
:1021900010B50F4800F0FEFB0E480A21FDF7C1FF05
:1021A000FEF7F6F90C4C2168401A0C49884204D31A
:1021B00000F0B6FEFEF7ECF920600548054C21461C
:1021C00000F04AF8012120460A4600F00FFF10BD3A
:1021D000280200203402002084010020E193040042
:1021E000F0B581B00090002819D00020194A0D4B9D
:1021F000044603E0641C00998C4210D0111F0D6846
:102200001768064601E09E42F4D2394617688F42AD
:10221000FCD08E19F61B8F42F5D37619F3E701B087
:10222000F0BDC046C05D0000B0B51821414309486B
:10223000021F12680468002301E08B4209D2254680
:102240000468AC42FCD0EB181B1BAC42F5D39B18C6
:10225000F3E7B0BD18E000E010B582B00C4643785B
:1022600002788078009003A1204601F08FF802B038
:1022700010BDC0463230256420253032642530320E
:102280006400000010B582B00C460379C278417931
:1022900080790091019003A1204601F077F802B007
:1022A00010BDC04657256420253032642530326485
:1022B000253032640000000080B50146CAB200201B
:1022C000202A13D0252A10D00B462D3BDBB20D2B34
:1022D0000DD90B46413BDBB2192B12D90A46613AA4
:1022E000D2B2192A02D82039E8E70B4880BD0D2167
:1022F0004A430C481018FDF745FF8000084908586C
:1023000080BD19214A4305481018FDF73BFF8000A6
:1023100003494018806B80BD00140A00B3F9FFFF29
:10232000B0370008BDFDFFFF80B500F0E9FD80BDBE
:10233000F0B52023034040250540C100CAB2562114
:102340005143090A040A060606D4002D11D1002BB8
:1023500022D1CB43002232E0002D15D1002B1FD11A
:10236000AB2151430A0A5421C943891A553200232B
:1023700025E0002B19D1AB2353431A0A5423DB4326
:102380009B1A563900221AE0002B13D15422D24353
:10239000521A0B46553311E05531AB2300220EE0A3
:1023A000CA4300250B46294609E0CD4300230A46CF
:1023B000294604E05522521A0B46563B0021E6B24C
:1023C000FF2E1BD0002E03D1FF221146134615E02D
:1023D000FF252F46A7437F433C0AFF2E00D0641CF5
:1023E000A5436D1CD2B26A43120A1219C9B26943DD
:1023F000090A0919DBB26B431B0A1B19FF242504C8
:1024000004462C40AC4217D0040CE4B26443240AC6
:10241000284200D0641C20060BD0D0B2E2B2541C7B
:102420006043020AC8B26043010AD8B26043030A9B
:1024300002E0002211461346D0B20004C9B20902DC
:102440000818D9B24018F0BD8EB0FEF7F9FD05AE00
:1024500024213046FDF765FE00250A95012004027F
:1024600009940F2005900C95069507950495039502
:10247000029501954E4800880B903046FEF748FFC4
:1024800000280DD000F03CFD7D20C400494D2046C1
:10249000FDF7D4FE002128460A4600F0A7FDF6E726
:1024A0000495039502950720019001A82946FEF79F
:1024B00031FE00280DD000F023FD7D20C4003D4DED
:1024C0002046FDF7BBFE002128460A4600F08EFD9F
:1024D000F6E700F053FB00F0CDFB00F0F5FB00F059
:1024E00029FC00F059FC00F053FD00F00FF900F05A
:1024F000CFFE314E75723572F571B5712FA106227E
:102500003046FDF7F5FD01223046294600F06EFD0C
:102510002F46C820FDF792FE3046FDF70DFE2E2116
:1025200031543018457001223046294600F05EFDD6
:10253000781C032F0746ECD32C342046FDF77EFE93
:10254000204C214D214E234F02E0002000F0C8FE18
:10255000607A002805D0204600F0DEFE204600F01C
:1025600008FB287802280DD8FEF712F83168401AC7
:10257000032807D329781648007800F0D5F8FEF72D
:1025800007F8306038780028DFD05E4800680078AF
:102590000028DAD1FDF7FCFF0F490968401A7928B5
:1025A000D3D300F035FCFDF7F3FF0B490860CCE70F
:1025B0000001FF1F7C380008340200205374617250
:1025C0007400000008010020B7010020B0010020C5
:1025D0000B00002004000020E0000020B0B5104CEB
:1025E0000A2520462946FDF79CFD0E4800786843E1
:1025F0000D490A5C22700818C179E1718179A171D5
:102600004179617101792171C178E1708178A1709E
:1026100040786070002120460A4600F0E7FCB0BD1B
:1026200034020020810100205438000810B5064C07
:10263000204600F0AFF9054807222146FDF758FD76
:1026400003480121017010BD28020020DC01002098
:102650000C000020F0B583B0029101900520040722
:1026600002250126204629463246FDF788FF0A2723
:102670003846FFF7D9FD002220462946FDF77FFFA7
:102680003846FFF7D1FD0198002801D0772000E0FF
:102690007F20C04302990843C0B200F049FE38468B
:1026A000FFF7C2FD204629463246FDF768FF03B01A
:1026B000F0BD000070B50C460021114A55582B782A
:1026C000834203D0091D1C29F8D10025002D14D008
:1026D0000C4E3068A8420FD0002804D001690029B0
:1026E00001D020468847E968002901D02046884764
:1026F000054800210160356070BDFDF783FD70BDA8
:10270000C0000020140100208801002080B5774817
:10271000002141710171C170817041700170FF2011
:1027200000F07EF880BDC046F0B581B004460229B5
:102730000BD001291CD000296CD137480188807842
:1027400000040818FFF7F4FD51E033480178BF207A
:102750004843000A002900D0401C820041B20029F1
:102760003FD44006D1B201D50902FF3100203DE03F
:1027700029490A88D0B2C0267043000A3F25034683
:102780002B40120AFF275740897809040A0C574347
:10279000390A521AD7B21A467A439209521830406F
:1027A00040280E4600D016466B407B439B095B18C1
:1027B00000281D4600D0354640281E4600D00E4653
:1027C0000028174600D03746EDB23E02B6B2402888
:1027D00000D01A46AB19002800D01146080418187A
:1027E00005E0FF200102FF31D0B2000408430B498D
:1027F00008803E4AD0701070000C88705071907044
:1028000048781071507004480178491C01702046C6
:1028100000F006F801B0F0BD08000020B40100206F
:10282000F0B587B00446304D6C212846FDF779FCA1
:102830000294022C4FD300200190014604E0183589
:102840000599491C022946D0032630460591484384
:1028500026490A180692085C029F7843FF24214605
:102860000394FDF770FC0490069840787843214665
:10287000FDF769FCC4B20698807878430399FDF7A8
:1028800062FC8023019A05E0F743AF54521C5B08B9
:10289000082A04D07F212342F6D1CF43F5E7AA18B6
:1028A000049BDBB2802405E0F74317706408521CD8
:1028B000002C03D01C42F7D1CF43F6E7C0B28023EF
:1028C00005E0F44314705B08521C002BB7D00342A0
:1028D000F7D1CC43F6E70020C343054802496C22F8
:1028E000FEF72AFF07B0F0BD64020020FF000020C1
:1028F000E4010020F0B587B013460A46014605AC56
:1029000001200490E070CD252E464E43F70A0A20A0
:1029100006467E43891B3E010E43A671294651435C
:10292000C90A06464E43921B0901114361712946AB
:102930005943C90A02464A439A1A090111432171AF
:102940000C992A464A43D20A03465343C91A120134
:102950000A43A2700D992A464A43D20A03465343BA
:10296000C91A12010A4362700E994D43EA0A504394
:10297000081A1101014321707D2080000721009475
:1029800001910290CD4864210022049BFEF7BEF91C
:1029900007B0F0BDF0B589B0044607AF0025BD71A2
:1029A000BD8007954B20800007210097069101917B
:1029B0000290C248652101232A46FDF79FFE3A781E
:1029C0000F20130902400A214B439A180592A27165
:1029D0007A78130902404B439A1804926271BA78CC
:1029E000130902404B439A18039222713A79130952
:1029F00002404B439E18A6707A79130902404B435C
:102A00009A186270BB7918401B094B431F18632F3B
:102A100000D9172727700D2A01D30C206070617828
:102A20000D2048430D300521FDF78DFBF1B2C9198A
:102A3000BA08891808182438069E3146FDF7A2FB0B
:102A40000806C00E00D03146080600D00E46E670DB
:102A50000398182800D3257104983C2800D3657189
:102A600005983C2800D3A57109B0F0BDF0B583B03E
:102A700015460E460190052004070221009101220F
:102A80002046FDF77CFD0A273846FFF7CDFB0022E4
:102A9000029420460099FDF772FD3846FFF7C4FB0B
:102AA000C0200199084300F043FC3846FFF7BCFB07
:102AB000002D05D0307800F03BFC761C6D1EF9D15E
:102AC0000A20FFF7B1FB022101220298FDF757FD12
:102AD00003B0F0BDF0B581B00090052004070225D9
:102AE0000126204629463246FDF749FD0A27384689
:102AF000FFF79AFB002220462946FDF740FD3846A5
:102B0000FFF792FB009800F013FC3846FFF78CFBB0
:102B1000204629463246FDF732FD01B0F0BDF0B542
:102B200081B0009005200407022501262046294691
:102B30003246FDF724FD0A273846FFF775FB0022D1
:102B400020462946FDF71BFD3846FFF76DFB009830
:102B5000002801D0442000E0402000F0E9FB384686
:102B6000FFF762FB204629463246FDF708FD01B01B
:102B7000F0BD00214172817001807047F0B589B0CD
:102B80003848016801242143016001682140049113
:102B900004990168022739430160016839400491B2
:102BA00004990168042202921143016000681040F8
:102BB0000490049807970594069704977C4804AD01
:102BC0002946FDF71FFC284805900694E020049054
:102BD0000520000701902946FDF714FC0726304622
:102BE000FEF772FA0022039230462146FEF776FA8B
:102BF0000594069404941D482946FDF703FC03261A
:102C0000049601982946FDF7FDFB194805900694A6
:102C10000298049015482946FDF7F4FB079605979E
:102C2000039806900896049710482946FDF7EAFB9A
:102C3000122005900694062008901820049007960C
:102C40000A4E30462946FDF7DDFB059706940398AA
:102C500008908020049030462946FDF7D3FB09B048
:102C6000F0BDC04634100240000031100004005096
:102C700000002110B0B582B0012359050E4A106939
:102C800008431061106908400190019810680843DA
:102C900010600A480A4C0B4D9B030560446083603A
:102CA00013688B431360FDF779FC002801D0FDF712
:102CB000A9FA02B0B0BDC0462C100240400100206D
:102CC000801A06000054004070B588B00120C1028F
:102CD000164A10680843106036486323144D0024D8
:102CE000042660C0046043608460C46004611268AC
:102CF0000A40019201990838FEF700FE002801D031
:102D0000FDF780FA039460200190049405940694E2
:102D100007940F200290274801A90C22FEF72EFEEF
:102D2000002801D0FDF76EFA08B070BD40100240D7
:102D3000002C0140F0B581B001200103134A106955
:102D4000084310611069084000900098106808431B
:102D500010600F4808230F4C002505620726360235
:102D60004127BF0090C0056046608560C560056171
:102D7000436113688B4313600838FEF793FC002807
:102D800001D0FDF73FFA01B0F0BDC046301002405F
:102D9000E40100200030014080B5054802210122F5
:102DA000FDF7EDFB03480C21FEF710FF80BDC04688
:102DB000000800509001002010B51148FFF7EAFD0F
:102DC000ED480A21FDF7ADF9FDF7E2FB0D4C216856
:102DD000401A0D49884204D300F0A2F8FDF7D8FB51
:102DE00020600748F34C2146FFF74CFA0748027869
:102DF0005142514101700022204600F0F7F810BD09
:102E00002802002084010020E19304008E010020AC
:102E1000F0B583B0374AD069002842D10020009035
:102E200007468025FD400820009B19462E46CE40CF
:102E300001242640401E86403343491C0028F5D11A
:102E4000E0030197F840C6B2002708203D4631460E
:102E5000F9402140401E81400D437F1C0028F6D1DF
:102E6000E0050199C840C2B2002608213046174645
:102E7000F7402740491E8F403843761C0029F6D181
:102E8000D9B20904EAB212025118C0B20818019F5F
:102E9000B900184A50507F1C082FC2D11648002193
:102EA0000170154D28788000105802A900248C70FC
:102EB0000C80002805D002A98870020A4A70000C14
:102EC00008701B2002A90322FFF7D0FD0B480278EF
:102ED0000121002A01D10A4600E0E2432B78D218F2
:102EE0002A70D2B2072A02D0002A01D121460170ED
:102EF00003B0F0BD4002002061020020600200200B
:102F000080B55F4900208883086048608860C86099
:102F10000861486188611E22FFF7A8FD80BDC04698
:102F200070B584B0012619A400250395029501957A
:102F3000FDF72EFBB0400A21FDF705F90A4601A86E
:102F40004019214600F022FA0120FFF749F96D1CD3
:102F50000A2DEDD101A8002529462A4600F046F8A1
:102F60000A20FFF73DF9761C0B2EDDD144498D83F5
:102F70000D604D608D60CD600D614D618D611E22D3
:102F80002846FFF773FD04B070BDC04625640000FD
:102F900010B50620FFF79EFD00242046FFF7BFFD79
:102FA00011480178072904D0072101700120FFF79B
:102FB00051FB33498C830C604C608C60CC600C619D
:102FC0004C618C611E222046FFF750FD10BDC046AB
:102FD00080B505490A78824204D00870C1B2012048
:102FE000FFF738FB80BDC04605000020F0B583B078
:102FF000019200910290FDF79FF80746204D0026B0
:103000002E606E60AE60EE602E616E61AE61AE836A
:103010001C4C24212046FDF784F8092F00D30927F2
:10302000002F1BD07F1C05E0B1006050761C7F1E76
:10303000012F13DD0298C019801E00780028F6D0F9
:10304000FFF73AF90121009A002A01D0CA03104380
:10305000019A002AE8D089030843E5E7002002CC62
:103060000A0C2A542A189170090A5170C01C1B2896
:10307000F5D1002002491E22FFF7F8FC03B0F0BD95
:10308000B80100201801002070B582B0264C0A213A
:103090002046FDF746F8254D2878414241412970E8
:1030A000234E32787378B078009022A1204600F049
:1030B0006DF973480078032810D002281CD001282D
:1030C0002AD1704863210170704806606E4817214C
:1030D0000170287800281FD0A01C1AE069481F2121
:1030E0000170694801210170B01C684908602878A6
:1030F000002811D0E01D0CE062480C2101706248EC
:1031000001210170701C614908602878002803D0F3
:10311000201D202141700170034800210A46FFF75D
:1031200065FF02B070BDC046340200203C010020A3
:10313000DC01002032302564253032642D25303208
:1031400064000000B0B50C4C0A212046FCF7E9FFF2
:103150000A48007880000AA10D582846FCF7ECFFC9
:10316000024620462946FCF7C3FF002120460A46B6
:10317000FFF73CFFB0BDC0463402002080010020B4
:10318000823800088938000890380008973800080D
:1031900010B5084C0A212046FCF7C3FF0648027808
:1031A00006A1204600F0F2F8002120460A46FFF76B
:1031B0001DFF10BD340200200B000020424C3A20BD
:1031C0002564000070B582B0264C0A212046FCF729
:1031D000A8FF254D2878414241412970234E32797C
:1031E0007379B079009022A1204600F0CFF82448EE
:1031F0000078032811D002281DD001282BD12148A6
:1032000017210170204800210170301D1F490860FE
:10321000287800281FD0601C1AE01A483B21017052
:10322000194800210170B01D18490860287800284D
:1032300011D0E01D0CE013483B2101701248002121
:103240000170701D114908602878002803D0201DE6
:10325000202141700170034800210A46FFF7C6FE95
:1032600002B070BD340200203C010020DC010020CF
:10327000202530326420253032642025303264002D
:103280000C0000208C0100208D010020D8010020BE
:10329000B0B5002011490C582278002A03D0001D37
:1032A0001C28F8D10024002C14D0204D2868A042FE
:1032B0000FD0002804D00169002901D000208847E0
:1032C000E168002901D000208847124800210160F0
:1032D0002C60B0BDFCF796FFB0BDC046C00000201A
:1032E00070B50446114D2868002811D08068002868
:1032F0000ED0FDF74DF9074E3168411A2868426833
:10330000914205D9816820468847FDF741F9306030
:1033100070BDC0468801002080B5044909680029B5
:1033200003D04969002900D0884780BD14010020DE
:10333000F0B581B004461448012600223146FDF75D
:103340001EF908250A273846FEF76EFF224632404E
:10335000052000073146FDF712F93846FEF764FFF5
:10336000094831463246FDF70AF93846FEF75CFF58
:10337000002205483146FDF702F96D1EE0B244080F
:10338000002DDFD101B0F0BD000400500FB410B526
:1033900004A9074B02AA039800F01CF8044602A9EE
:1033A000002000F0BFF9204610BC08BC04B018474C
:1033B0002537000802E008C8121F08C1002AFAD108
:1033C00070477047002001E001C1121F002AFBD1A5
:1033D00070470000FFB58FB00546002606E025289F
:1033E0000AD0129A119990476D1C761C28780028F3
:1033F000F5D1304613B0F0BD002402940121B54A46
:10340000009400E004436D1C2B780846203B984054
:103410001042F7D128782A280ED0022228780146B7
:103420003039092916D802990A23594330394018EE
:1034300014436D1C0290F1E7109802C8029110909D
:10344000002904DA0120400304434842029002208C
:1034500004436D1C28782E2817D104200443687873
:103460006D1C2A280CD110986D1C02C80091109078
:103470000BE000990A225143303940186D1C00902E
:103480002878014630390929F3D928786C2810D0DA
:1034900006DC4C281AD068280ED06A2817D104E020
:1034A000742813D07A2812D110E00120400504437B
:1034B0000CE00121090501E0032109050C436978AD
:1034C000814203D10120000524186D1C6D1C287851
:1034D000692874D006DC00288BD0632827D06428A4
:1034E00006D16CE06E2808D073282CD0752878D0CF
:1034F000129A11999047761C5FE06002400F0228F3
:1035000009D003280DD00428109801680DD00E6052
:10351000001D109051E01098F21701680E604A608B
:10352000F6E7109801680E80F2E70E70F0E7109849
:103530006A4601781173001D10900020507303A893
:103540000190012005E0109802C801911090002020
:10355000C04361070CD5002700E07F1C00998F4213
:103560000FDA8742F9DB0199C95D0029F5D108E03E
:10357000002700E07F1C8742FCDB0199C95D002920
:10358000F8D102982146C01B0290129B119A00F0BC
:10359000B3F88019C61907E0019801990078491C11
:1035A0000191129A119990477F1EF5D22146129BE4
:1035B000119A029800F090F886196D1C16E70A20FF
:1035C0000190109901C910916102490F032900D19E
:1035D00000B2042900D140B2002803DA40422D2174
:1035E00003E00DE0210504D52B216A46117301216A
:1035F00003E0E10711D02021F7E70CAF0C9114E0B4
:103600000A200190109901C910916102490F032904
:1036100000D180B2042900D1C0B20021EDE70199A8
:10362000FCF791FD30317F1E39700028F7D104A8D6
:10363000C01B20300190600704D5012000048443A2
:10364000009801E0012000900199884201DD401AB4
:1036500000E00020411800900C9809180298401AC8
:103660000290E00306D42146129B119A029800F0C2
:1036700043F8861900200D9008E003A9085C129A0F
:10368000119990470D98401C761C0D900C9988421A
:10369000F3DBE0030CD52146129B119A029800F04F
:1036A0002BF8861904E0129A302011999047761C65
:1036B0000099481E00900029F5DC05E03878129A40
:1036C0007F1C11999047761C0199481E0190002992
:1036D000F4DC6BE709280100F8B5044600251E4616
:1036E0001746880404D405E039462020B0476D1CF5
:1036F000641EF9D52846F8BDFFB50446002581B003
:103700001E46C80301D5302700E02027880404D5D1
:1037100005E038460399B0476D1C641EF9D528466C
:1037200005B0F0BD0A68531C0B60107070470000B4
:103730000000000000000000000000000000000089
:103740000000000000000000000000000000000079
:10375000010000000200000003000000040000005F
:10376000060000000700000008000000090000003B
:103770000000000000000000000000000000000049
:10378000010000000200000003000000040000002F
:103790000000000000000000000000000000000029
:1037A00000366E0100000000000000000000000074
:1037B0000000C000000002000004080000273900DB
:1037C000000620000022D1000022E1000003E000FA
:1037D0000021E1000021F100002220000023F1007F
:1037E0000023E100000804000023F000002AA500E7
:1037F00000211100002A2500002151000021D000E5
:103800000021B1000003F000002805000002310093
:1038100000055200000111000017300000133200B3
:10382000002331000023D000002333000023D20006
:103830000021E10000280400000331000005180009
:1038400000033A0000140A000003C4000024090029
:1038500000140A007365742074696D650300736554
:103860007420646174650400726762207479706505
:10387000050072676220626C000006004572726F7C
:103880007200547970652D3100547970652D3200C5
:10389000547970652D3300436C6F73650000000030
:1038A000C038000800000020E0000000B433000829
:1038B000A0390008E0000020F0050000C433000833
:1038C00000366E01010100000064FFFF01000000EE
:1038D000010000000400000005000000640000007A
:1038E000453100080000000000000000DD1F000856
:1038F0000600000064000000913100080000000094
:10390000000000004D20000801000000E803000056
:10391000912100080000000029230008112100085F
:10392000040000002C010000893000082D2600084A
:1039300000000000E91E0008030000002C01000048
:10394000C53100082D26000800000000E91E00080F
:103950000200000064000000DD25000800000000F7
:1039600000000000A5200008000000005E0100002B
:10397000B92D0008000000002923000811210008CB
:10398000A80000204800002090000020180000201F
:1039900030000020600000207800002000000000BF
:04000005080000C12E
:00000001FF
